S01C00005A33436F6C6F7254656D704C69676874536F635F332E73333707
S3150000000030DD0320A1B7020089A002008DA0020006
S31500000010A70A02020002000004180FAC105A500092
S3150000002000000000000000000000000000000000CA
S315000000300000000090D70200000000000000000051
S315000000400000000000000000FFFFFFFFFFFFFFFFB2
S31500000050FFFFFFFFFFFFFFFFFFFFFFFFFFFFFFFFAA
S3150000006000700F003000000000000000FFFFFFFFDF
S31500000070FFFFFFFF1C000000000000000000000062
S3150000008000000000000000005DFF03205DFF03206C
S3150000009030DD0320B420030026BA0200D0D30320AB
S311000000A0500F00200000100000000000BF
S3150000020030DD0320A1B7020089A002008DA0020004
S3150000021095A0020091A0020099A0020015A102007B
S3150000022015A1020015A1020015A1020015A10200E8
S315000002309DA0020015A1020015A10200CD29010012
S31500000240791C01004D4902002163000015A102003E
S315000002505549020097490200754902007349020098
S315000002608F490200BD870200718A0200BFE30100C8
S31500000270EB0E010015A1020015A1020019A502004E
S3150000028015A1020015A102007D8A020015A1020037
S3150000029015A1020015A1020015A1020015A1020078
S315000002A015A1020015A1020015A1020015A1020068
S315000002B07F490200874902000F19010015A10200BB
S315000002C015A10200E5B9020015A1020015A1020060
S315000002D015A1020015A1020015A1020015A1020038
S315000002E015A1020015A1020015A1020015A1020028
S315000002F015A1020015A1020015A1020015A1020018
S3150000030015A1020015A1020015A102007C4901E019
S3150000031029B1491E7B4A1268D207F9D401B9C5E052
S31500000320794908600120794908607648006810F02C
S31500000330060F05D0410700D5BBE0800700D5BBE01E
S315000003400020704770B51346002200293DD0A3B99E
S315000003508B423AD250F8044B6D4D2C6008246B4DFD
S315000003602C605B1C664C01E06CB3641E654D2D6809
S31500000370ED07F9D4002CEBD125E0EFF3108472B62B
S31500000380002313E05F4D2D6805F01905102D04BFFD
S315000003905E4E35605B4D2D682D07F3D550F8045B36
S315000003A05B4E35601025594E35605B1C8B42F1D390
S315000003B004B962B6524C01E02CB1641E5148006883
S315000003C0C007F9D40CB96FF00202104670BD2DE9D2
S315000003D0F84388464F4909684E4909684E490968F5
S315000003E099464D4B044641F00101002019609708DB
S315000003F0002502E0751908EB8608BD4217D204EB0A
S315000004008500FFF783FF010017D104EB8500C0F3D9
S315000004100A00C0F500608608781BB04238BF7E1B14
S315000004204A4631464046FFF78DFF0100E2D03A4981
S31500000430394A0968490849001160BDE8F283354A1E
S31500000440354B1268334A2E491268334A126842F015
S3150000045001021A602C4A106001202C4A10602948BB
S315000004600068400704D5186840084000186020E07E
S3150000047024480068800704D51868400840001860C2
S315000004801AE00220106001E029B1491E1D480068EB
S31500000490C007F9D421B9186840084000186005E083
S315000004A01868400840001860002070476FF002008E
S315000004B070474FF0FF3070476FF001007047002320
S315000004C085E715481449006840F00100086046F2C7
S315000004D01A30124908604FF480700C4908600948C8
S315000004E00068C007FBD44FF4007008600548006838
S315000004F0C007FBD4002009490860704700000000CF
S31500000500809698001C000E4010000E400C000E4015
S3150000051018000E4004300E4008000E4054000E40F5
S3150000052010B586B0002143480078CDE9001170244B
S31500000530F0B900F029F99324022819D102A800F095
S31500000540D7FB082269460DF10A0001F009FAB72423
S3150000055070B100F015F9702450B14FF48A5202219F
S31500000560002001F02AFA040002D132490120087065
S31500000570204606B010BD2F482E4A01780020107084
S31500000580080018BF01207047E0B52A480078012806
S3150000059002BF488848F20201884220D1507B0002FF
S315000005A000F47E40B0F5285F13D101A9002001F0C8
S315000005B061FCA0B901A801F005FF00281D4A0090C2
S315000005C00CBF02210021117001201B4B00F02BF8FB
S315000005D005E01E2002F067FA164900200870002088
S315000005E00EBD38B504461348007802280D4619D1C9
S315000005F000950120114B00F016F81149012002F078
S3150000060030FB012308222146012002F05BFB08A1F2
S31500000610012002F020FB284602F045FA10B10549F8
S315000006200020087031BD074A074902F014BB0000DC
S3150000063000000000C7FD032040CB02006CCB020087
S3150000064080CB02002CCB02001CCB020010B502F0BE
S31500000650AFFB012300224FF4E131012002F0ACFB95
S3150000066002F063FC044602F001FD02462346DFF871
S31500000670A814012002F0EFFA02F060FC044602F032
S31500000680F9FC02462346DFF89414012002F0E3FA4F
S3150000069002F0ECFC40F2A174C440E00710D5DFF88C
S315000006A08004007802F0F4FCDFF87404007802F0AD
S315000006B08DFDDFF86C040078BDE8104002F049BEFD
S315000006C010BD80B500220021684602F0D9FE08B1AF
S315000006D0009802BD01F0DAF960B10346DFF8442460
S315000006E0DFF84414012002F0B6FA9E21DFF83C043C
S315000006F002F034FF03F038F803F0A9F803F060FCC9
S3150000070004F038F90221022004F05AF903F08BFBB9
S3150000071004F069F9DFF8181441F20200088052204B
S31500000720DFF810140880DFF8101408804FF400403A
S3150000073004F080FD01E003F02FF805F015FE01F04E
S3150000074079FA05F03BFE012818BF04F01CF902F007
S315000007508BFB05F075FE0121002004F07DF90028D1
S31500000760E9D0DFF8D82394A14FF6FF7002F079FAAA
S31500000770E1E7DFF8CC13098810237F2205F0F8BEE5
S3150000078001F0ADBB01F0B3BB05F0F1BF06F0D4BC80
S3150000079030B585B002A806F0F0FD78B900246946A8
S315000007A0204606F010FE082202A9684601F0D8F895
S315000007B088B1641CE4B2022CF1DB12E006F0D5FD30
S315000007C005464FF6FF7085420BD00024204606F002
S315000007D008FEA84201D1204604E0641CE4B2022CC3
S315000007E0F4DBFF2005B030BD38B5044602F0C9FF82
S315000007F0050008D14FF4A851204606F0EAFF054649
S3150000080002F0C8FF284632BD30B585B000F0B8F812
S31500000810FFF7B6FF38B16088B0F5006F03D1601DF1
S3150000082002F033FE13E0204602F086FE050015D1E5
S3150000083000256946284607F052F9002804BF9DF8AE
S315000008400000002805D12146284607F053F9054641
S3150000085004E06D1CEDB20C2DEBDBB42502F09AFF23
S31500000860284605B030BD38B500F08AF8204602F0BB
S3150000087061FE050003D1204607F087F9054602F020
S3150000088089FF284632BD10B582B00446FF208DF898
S3150000089000006946204602F0E6FD10B19DF8000012
S315000008A016BD07F05FFBA74901EB0411097B8142E6
S315000008B007D1204603F0BFFB18B1204603F0A4FE83
S315000008C016BDFF2016BD70B504460D4602F0CDFDDF
S315000008D028BB204603F094FE0646FF2E07D007F0FD
S315000008E041FB984901EB0611097B814201D00020AA
S315000008F070BD00F016F801214088288000F011F83C
S315000009008088688000F00DF880792871204603F011
S315000009107FFE68710021204603F07AFEA87101204F
S3150000092070BD884800EB06107047F8B500F084F8F3
S3150000093003F066FE0746FF2F13D007F013FB81492D
S3150000094001EB0711097B81420BD1280008BF012268
S3150000095002D0012D05D100223146204603F07FFE4C
S3150000096010B94FF6FF70F2BD0088F2BD10B500F069
S3150000097007F8204603F0F5F9BDE8104002F00ABF7B
S31500000980044602F0FCBE38B50C466F4909680D5C9A
S315000009902B469A4207D200920220624A6B4902F025
S315000009A05AF9002032BD002100910022014620465E
S315000009B007F061FC284632BD25703E0070B598B040
S315000009C000F03AF802F0DBFE522203A93046FFF7A8
S315000009D0DAFF060011D00DF1090006F0BFFC02A8EF
S315000009E006F0BEFC03A801909DF908309DF8092089
S315000009F000962946204603F0FCF802F0CBFE18B01C
S31500000A0070BDF0B599B000F017F81F4602F0B7FEBA
S31500000A10522203A93846FFF7B6FF48B103A9019150
S31500000A200090029732461E9B2946204603F051F954
S31500000A3002F0B0FE19B0F0BD04460D4616467047EA
S31500000A40F0B583B007460D4608981646194607F0D6
S31500000A50F6FB0446FF2C01D11820FEBD0998047050
S31500000A60062F0A980B9A2CD8DFE807F00404040B2B
S31500000A7012221B00234632462946384606F074F8F1
S31500000A801DE023460C220C21304606F03CF916E008
S31500000A90019200902346F27A1146304606F018F984
S31500000AA00DE023460C223146284606F0BDF806E046
S31500000AB001943346F17A0091294606F0D7F80546A7
S31500000AC000E00225204607F037FB2846FEBD082237
S31500000AD01F4900F0FBBE10B50446084605F058FE57
S31500000AE02046BDE8104008F0F3BF08F0F1BF05202E
S31500000AF070470C2070471748007870474B207047A6
S31500000B0000B583B068461449082209F0B1F8DDE95A
S31500000B10000103F0D9F907BDBCF40200D4F40200C9
S31500000B20CAE3032008F50200F4F4020010F50200FF
S31500000B30B4E30320B8E30320BAE3032020F5020060
S31500000B409E1B03007CF1032064E2032038F50200BB
S31500000B50A4F50320CDE303202818030010B582B0C6
S31500000B60FFF70EFF0DF1010006F0F8FB684606F0F0
S31500000B70F7FB9DF900209DF80110204609F03EF98B
S31500000B8002F008FE13BD38B504460D4602F0F7FD27
S31500000B902946204609F03DF908E038B504460D46D9
S31500000BA002F0EDFD2946204609F01FF9BDE8314067
S31500000BB002F0F0BD03F0F9BE70B5DFF8D45C044670
S31500000BC0286882B02688407B08B1702076BDB005C3
S31500000BD004D504F1120000F0F4FDF0B906F0860029
S31500000BE0862801D1B72076BD00F0DEFD286816F410
S31500000BF0045F466120D0B0040BD5A01C09F038F97B
S31500000C00010051D12868416921F4005141F48071F5
S31500000C104161A01C00F0D5FD08B1B22076BD09F0F7
S31500000C2062F920B92868416941F480314161286838
S31500000C30416941F0200141612868416941F4004160
S31500000C40416148064CBF04F123020022A31C47F26F
S31500000C50FF1001F031FA684600F040F82868406954
S31500000C60C004BDF8000004D540F02000ADF8000037
S31500000C7008E04FF6DF710840ADF8000009F060F9B2
S31500000C8009F015FCBDF8000000F00FF8286840696F
S31500000C90800506D594F82210012204F1120000F016
S31500000CA085FB29680020486276BD10B5044604F429
S31500000CB0E6600104002300224FF07F6001F0FCF99A
S31500000CC023462F22CEA1032009F0F2FDE00703D52B
S31500000CD00021302001F027FA002010BDDFF8B01BFC
S31500000CE009684969090C01F4E66101800020704732
S31500000CF038B5DFF89C5B04462868407B022801D0A3
S31500000D00932032BD0A220021204600F022FE2868E8
S31500000D10406900F0FF01820648BF41F010012180C2
S31500000D2080075CBFA01C01F05DFA002032BD38B51B
S31500000D3004460D4609F011F908B9952032BD00F0B8
S31500000D4031FBC17E89B14069010401D4A82032BDBE
S31500000D505DB110F0420F08BF002C04D000F44070C3
S31500000D60B0F5407F01D0B72032BD002032BD000073
S31500000D702DE9F04F8BB082468B4609F0E5FE014621
S31500000D80504607F071FB044650460AF0B6F8804616
S31500000D90002698F80100DFF8F85A800748BF0126B8
S31500000DA0A00648BF46F00206504609F050FF8DF8EF
S31500000DB0040002ACDFF8DC0A00689DF8041010F8A5
S31500000DC00A009DF80420431ADBB2242BA8BF232374
S31500000DD000200090514602A807F04DFA60789DF871
S31500000DE0087000902868C07E88B100F028FD0028B1
S31500000DF014BF4FF4D0704FF4F070F840C00706D51A
S31500000E00B00704D4082F09D10098042805D10AF0A8
S31500000E10BFF9002818BF052F03D09AE0052FF6D09A
S31500000E2097E09DF804200023514602200BF09EFC1B
S31500000E307F1F0B2F4FF6FF79F2D8DFE807F0061772
S31500000E40374E548A8A8A8A596D73009806280CDAB6
S31500000E5008F102000BF092FC044650460AF06EF8C8
S31500000E60334602AA214600F007FB72E001F037F88C
S31500000E7000286ED12868C17E00296AD0B10702D445
S31500000E804069800165D40DF111000BF077FC024634
S31500000E90DFF8044A9DF8130084F800A00DF1090359
S31500000EA059460BF099FCFF20207052E00822DFF82B
S31500000EB0EC190DF1090000F053FD20B90222594644
S31500000EC00BF051FF45E00DF109000CF025F94845FE
S31500000ED03FD000210CF086F83BE0324602A9584686
S31500000EE00BF07EFD35E06178012000F01CFA30E061
S31500000EF0F0072ED50DF109000CF00EF9484504BF98
S31500000F000DF109000CF05BF9484522D09DF804204C
S31500000F10514600F021F81CE0324602A958460CF072
S31500000F2043FD16E02868407B022808BFBBF1000F8E
S31500000F300FD1684601F056F958B1DFF86419002060
S31500000F400870607800280CBF65216421684607F0A8
S31500000F5067F80BB0BDE8F08F2DE9F0478046DFF863
S31500000F60340900680D4688B0405D02F10906871B0A
S31500000F70F9B2002007F063F90446FF2C3DD00120AA
S31500000F800090002342460821204609F033FD8146A1
S31500000F90B9F1FF0F2ED0F1B2284609F038FE82468D
S31500000FA0002000905346F2B2294601A807F063F9E3
S31500000FB0524601A9484607F0CFF9C0B9A7EB0A0780
S31500000FC0F9B2204607F048F840460CF091FDFF289C
S31500000FD0564400F09CF9FFB20097F3B22A4600216E
S31500000FE0204607F009FB414648460AF057FA4846AC
S31500000FF007F0A2F8204607F09FF808B0BDE8F08792
S31500001000425700002DE9F24F8046174686B01D462E
S315000010100021384607F028FA04460226E808082C7C
S3150000102000F0010018BF052C8DF804004FF00009F0
S315000010304FF0080B03D0062C18BF102C01D16808FE
S315000010400CE000F0AFF9C07E58B100F0F8FB0028C4
S3150000105014BF4FF4D0704FF4F070E04000F0010A76
S3150000106000E0CA4605F005FCFF2F6CD0E80748BF34
S315000010704FF4027BC820009000234246594638466A
S3150000108009F0B8FC0746FF2F5DD09DF8040028B193
S31500001090069938460BF011FE002851D04FF6F8702D
S315000010A08045ACBF09200120102C18BF0F2C8DF8ED
S315000010B0080005D19DF8080040F040008DF80800B2
S315000010C000F070F9817E4A1C8276BAF1000F8DF825
S315000010D0091006D09DF8080040F020008DF80800A1
S315000010E00F26324602A9384607F036F940BBBAF158
S315000010F0000F1AD00021052C0BD1384607F052F804
S31500001100012107F0B1F96224C440E0074CBF102169
S3150000111018219DF80400002819BF0223069A4123CE
S315000011200022384609F037FB50B9680704D5414616
S3150000113038460AF0B3F902E038460AF036F8814636
S31500001140384606F0F9FF484607B0BDE8F08FF8B517
S3150000115004460D46284609F046FFDFF83C7706466A
S315000011603D7000F0BCFE01463346224601200BF0DE
S3150000117033FBFF203870F1BD7CB51C46DFF8103715
S315000011801B681B7D00259B0701D5002076BD0192BB
S3150000119000900B4606220FF21C71002007F0ABF9F7
S315000011A00646FF2E0CD0002C14BF03230123324623
S315000011B000210020FFF726FF0546304606F0BCFF5B
S315000011C0284676BD2DE9F04104460D461646002711
S315000011D001F0EEF8B84618B1012300F014F80746FE
S315000011E001F0E6F838B100F02AFB40B100F0DAF879
S315000011F04069800103D4002300F005F8804648EAE0
S315000012000700BDE8F081324629462046B4E72DE9BD
S31500001210F34F9B46BBF1030F92460CBF01270027F5
S31500001220BAF1000F8DB018BFD04605D101A800F065
S31500001230D9FF48B10DF104082321002006F0FFFF75
S315000012408146B9F1FF0F01D100205FE006F0FEFEF6
S3150000125004460520207084F801B0199DE80607D5DC
S3150000126011220021A01C00F074FB04F1130618E003
S3150000127018991022A01C00F029FB622020FA0BF01E
S31500001280C00704F112060CD503A908A800F07CFAE1
S315000012903046461CA9064CBF9DF81C109DF8301020
S315000012A00170380008BFDDF838A0082251463046E4
S315000012B000F00CFB08362FB1A80900F0010006F873
S315000012C0010B09E001200090321B0823D2B24946E7
S315000012D0404606F0D0FF0836311BC9B2484606F034
S315000012E0BBFE680706D5BDF834000CF001FCFF28EC
S315000012F000F00DF80E99BDF834002B464A46FFF76C
S3150000130081FE0446484606F017FF204622E209D031
S31500001310DFF89015096831F810204BF6FF731A4074
S3150000132021F81020704730B58BB004460D4600F00A
S31500001330A0F8684600F045FA60B99DF810009DF8DF
S3150000134024100A1AD2B2812A04DB2CB1A94201D098
S31500001350A84201D0002023E01123022205A900F0B3
S3150000136070F89DF810100122684600F01FF80CF086
S3150000137089FC01214FF400700BF0C6FE08F0DAFD7F
S31500001380B0F1004F88BF08F0DBFD06F0F3FD00F07A
S3150000139009F890F820000BF0D8F906F0F1FD0120CD
S315000013A00BB030BDDFF8E80400687047F0B58FB0C9
S315000013B005460C46164611220021684600F0C9FA79
S315000013C001278DF810402DB910220021684600F043
S315000013D0C0FA04E010222946684600F077FA112286
S315000013E000210AA800F0B5FA1122002105A800F094
S315000013F0B0FA05A90AA800F0C7F9300014BF0AA878
S3150000140005A81122694600F0ABFA00B9002786B19B
S31500001410DFF87C544FB11123062200F011F828683A
S31500001420407B432808BF0CF099FB286880F82040D1
S3150000143004E01FB11123022200F002F80FB0F0BD44
S31500001440694600200CF065BC70B58AB004460D46AE
S31500001450164600F00EF8002E14BF05AE6E4610229A
S315000014603146204600F032FA307C28700AB000205F
S3150000147070BD694605A887E12DE9FF4F02F1010A13
S315000014808BB01AF8010B029003280CBF012400242C
S3150000149000F025FD4FF0000BD8460028C14657D076
S315000014A009F076FE002804BF9DF8380000284FD0CA
S315000014B05546284600F085F906460299DFF8D073AE
S315000014C06220C84010F001000AF1100A8DF80000F1
S315000014D018BF1AF801BBCDF80CA094B90AF1080898
S315000014E0B8B33868007D800733D5FF22082140460F
S315000014F005F079F968BB002342460021022000F07E
S31500001500DBFD00F0ECFCBDF83010884207D144B991
S315000015100398DFF88813082200F022FA002840F02A
S31500001520F1800020ADF802000DF10200FFF7D6FBB6
S3150000153002989DF83840012800F07A8003286CD084
S31500001540042805D100F034FF002818BF032C0FD063
S3150000155000E1404600F079FE0028D2D13868407B91
S31500001560432804BF02980128F2D14FF00109C8E7C9
S31500001570002EEDD12B4642462021DFF82C0300F049
S315000015809BFD396800204862C548007898B303205F
S315000015908DF8000000F0A3FC68B305F0A7F850B37F
S315000015A001A800F01FFE30B33868007D800722D402
S315000015B00F208DF80C00082204208DF80D000DF187
S315000015C00E00B64900F082F90DF1160301226946B4
S315000015D028460CF049FC1A2103A806F030FE054601
S315000015E0FF2D08D001232A4601A90020FFF70AFD96
S315000015F0284606F0A1FD3868417B022907D1032160
S31500001600404606F00DFD002000F044FFA2E041290F
S31500001610FCD140694005F9D571E0032CF6D10D984F
S31500001620817E01B101212A4612300CF052FC91E074
S315000016303868407B022806D100F0BAFE18B19DF842
S3150000164038008007F3D53868407B41280AD036B980
S3150000165009F09EFD024659462846FFF7A7FE09F007
S3150000166097FD002876D09DF8380000F0020500F0BE
S315000016709FFE60B138684169090502D4407B432862
S3150000168005D1280003D1AC2007F053F862E0386892
S31500001690007D800704D4BDF82C1000200CF07BFCE4
S315000016A03868417B112912D1406940050FD50020C9
S315000016B000F088FE00284DD107F058F8AE2007F05C
S315000016C038F8002000F0E6FE07F037F842E00DB1EA
S315000016D000F088F8B9F1000F11D04FF080510020CA
S315000016E000F021FD08F0FFFB18B94FF4803100F03F
S315000016F01AFD396800204862404600F0A4FD07F054
S315000017008DF827E09DF8000088B1BDF830004FF64F
S31500001710F87188420BDB03980022082105F063F874
S3150000172028B1002259462846FFF740FE12E00398EA
S3150000173000F086FB4FF6FF7188420BD0002E14BFD7
S3150000174015210421019100954246029B0399DBB2C3
S31500001750FFF75DFD0FB0BDE8F08F10B58AB0044607
S31500001760FFF787FE9DF824108C4205D105A80CF0E2
S315000017704AFC01200AB010BD9DF81000844208BF43
S315000017806846F4D00020F5E710B50C460146112353
S31500001790062201200CF0BDFA2146BDE810401123B7
S315000017A0022201200CF0B5BA80B5002200210020EB
S315000017B0FFF7FCFDBDE8044000214FF6FF7000F086
S315000017C0B2BC0022102105F00EB880B5FFF7EAFD85
S315000017D0C07E30B100F006F8BDE802402F4800F0A8
S315000017E030BD01BD2A480068007D10F0300F03D0DF
S315000017F02021302000F097BC704725480068C17E44
S3150000180001B9704780B5007BC01E032816D300209F
S315000018100CF068FB48B10179302211420ED101F07B
S31500001820CF0141F01001017101BD0BF000FD28B19F
S31500001830BDE80440002100200CF0ADBB01BD80B521
S3150000184000F04DFB0028FFF7ADFD40690CBF800896
S31500001850000D00F0010002BD10B588B004A800F02C
S31500001860ADFC0FF258000FC86C4684E80F0010223A
S31500001870694604A800F074F8401E8041C00F08B005
S3150000188010BD0A4800787047094800887047000074
S315000018904CF4032064E20320E8E30320A4F50320CC
S315000018A051FF032078E2032030000100E7E3032024
S315000018B0B0E3032031383231000000005A69674234
S315000018C06565416C6C69616E63653039814233D2FE
S315000018D010441144401E491E10E011F8013900F869
S315000018E00139121F11F8013900F8013911F80139CF
S315000018F000F8013911F8013900F8013992B2042AC9
S31500001900EBDA93B2002B1EBF11F8013900F801394A
S31500001910521EF6D1704711F8013B00F8013B121F29
S3150000192011F8013B00F8013B11F8013B00F8013BBF
S3150000193011F8013B00F8013B92B2042AEBDA93B2AC
S31500001940002B1EBF11F8013B00F8013B521EF6D1D9
S315000019507047130003D00A4619460CF091BB704736
S3150000196010B500E0521E93B223B100F012F8F9D080
S31500001970181B10BD002010BD10B500E0521E93B21A
S315000019802BB100F006F8F9D0181B40B210BD0020AC
S3150000199010BD10F8013B11F8014BA342704700003F
S315000019A00148014902E000BF46FF03200078401CC1
S315000019B00870087800F07F0070471CB5030A0DF127
S315000019C00504637003230093207008E01CB50DF135
S315000019D00504030AA170637004212070009101AB15
S315000019E005F071FF16BDF0B587B00D4604461146E9
S315000019F00DF105061F4608223046FFF767FF0C98D3
S31500001A0070723772000AB0720D98F072012813D006
S31500001A10032817D10E99082206F10C00FFF756FF8E
S31500001A20109830751620009001AB119A2946204671
S31500001A3005F049FF07B0F0BD0F983073000A7073C8
S31500001A400F20F0E70120F5E71CB58DF805200446C8
S31500001A5002220092084619460A4601AB2146BFE714
S31500001A607FB5044615461E4608220DF10500FFF710
S31500001A702DFF0A2000908DF80D5001AB324634211F
S31500001A80204605F020FF04B070BD000038B50AF00E
S31500001A905BFE0CF034FB12200CF068FC0006DFF84D
S31500001AA06C441AD500F0C0F8000616D500F0BFF851
S31500001AB0000612D500F0B5F800060ED5606880075E
S31500001AC07DD5206880077AD5206810F4407F76D0CF
S31500001AD00CF096FC010074D032BD12200CF046FCCE
S31500001AE0000610D500F0A0F800060CD400F09FF810
S31500001AF0000608D500F095F8000604D56068C00712
S31500001B005DD520681EE000F08FF800060BD400F0CB
S31500001B108EF8000607D500F08AF8C00703D400F057
S31500001B2080F800061ED500F07FF800060CD500F000
S31500001B307EF800F08100812806D100F072F80006D8
S31500001B4002D4606880070FE000F06EF8000611D43A
S31500001B5000F06DF800F0810081280BD100F061F8EB
S31500001B60000607D46068C00729D5206810F4407FB6
S31500001B70AED124E000F058F800060ED500F057F874
S31500001B8000060AD400F04DF8000606D56068800706
S31500001B9015D5206880079BD411E000F045F80006B3
S31500001BA096D400F044F8000692D400F03AF8000605
S31500001BB08ED56068C00702D52068800788D4B0201B
S31500001BC032BD01F0AFF9012003F0F8FE0CF088FCFD
S31500001BD006F0DCF805F0EAFB0CF0BEFC0FF27C30F8
S31500001BE0DFF82C430CF0A3FE2070DFF828030CF07E
S31500001BF09EFE60700CF014FF054660780CF0B9FE8E
S31500001C0028460CF013FF06F009F90CF0DDFF09F089
S31500001C106FFA0DF031F90DF032F90DF049F90020A7
S31500001C2032BD00200CF0A2BB10200CF09FBB11208F
S31500001C300CF09CBB2DE9F0470DF07FF9002004F075
S31500001C40EEFA0DF029FB08B90DF011FBDFF8C8829A
S31500001C50404606F041FD08B909F06BFDDFF8BC927D
S31500001C60484606F039FD08B905F07AF80DF0B1FBE3
S31500001C70DFF89C62DFF8A8523078DFF8A8A20CF0F3
S31500001C803EFE70780CF03BFE002700240AE006F0CA
S31500001C9076F92868007B001F022838BF012706F066
S31500001CA06FF9641C9AF80010E0B28842EFD3002F57
S31500001CB01EBFDFF874020078002805D000F02AF86D
S31500001CC0102808BF0DF0B0FC0CF014FC08F00AF95F
S31500001CD00CF0A6FE07460DF0DFFA68B1404606F0A6
S31500001CE0FBFC48B1484606F0F7FC28B108F0F8F8C6
S31500001CF010B130780CF03DFE38460CF097FE06F039
S31500001D0037F918B940F2711100F077F8BDE8F047DD
S31500001D100EF038B82DE9F0470CF040FF48B10EF050
S31500001D2002F930B10EF0C1F900F0010080F00108AF
S31500001D3001E04FF0010803F0C7FD00280CBF4FF08B
S31500001D4004094FF000090DF0A7FA48B1724806F0F1
S31500001D50C3FC28B1714806F0BFFC08B1002600E0BC
S31500001D6002267248007800286F48007814BF2027A2
S31500001D70002700286E48007814BF1024002400288D
S31500001D8014BF402500250EF08CF9002814BF4FF033
S31500001D90800A4FF0000A0EF086F908B14FF4807001
S31500001DA06449097809B14FF40071634A12780AB19F
S31500001DB04FF4806249EA080333433B4323432B43F2
S31500001DC04AEA0303184308431043BDE8F08780B589
S31500001DD02D224DA1032008F06BFD0CF0DFFE18B993
S31500001DE040F2A91100F009F803F0B8FC534806F0D8
S31500001DF07AFCBDE801400CF0DAB90FF2501001F0A0
S31500001E00ADBB80B50CF0A5F92E223FA1032008F04A
S31500001E104FFD03F078FD03F0D1FD4948007808B185
S31500001E200CF0C1F84748007808B10BF011FC4648A1
S31500001E30007808B100F04AFBBDE801400EF037B962
S31500001E4038B5044636480068007BC01E03280BD30D
S31500001E5020460BF061F94FF6FF75A84204BF2046F5
S31500001E600BF0ADF9A84204D12046BDE8324005F09A
S31500001E7019BB32BD70B504464FF6F87084420D4664
S31500001E8001DB012070BD2000254E07D13068007DA2
S31500001E90800703D4284600F0A5F9B0B93068428817
S31500001EA0944205D1011D08222846FFF70FFD0CE0DC
S31500001EB0007BC01E03280AD320460BF03DFEFF28F8
S31500001EC005D029460BF05CFE08B1002070BD2946FE
S31500001ED0204605F028FB401E8041C00F70BD10480B
S31500001EE00068008A70470E490968088270470C48E6
S31500001EF00068408A70470A4909684882704708485E
S31500001F00006800787047000042000000E881E00F9A
S31500001F10C5FD03204418030040E3032030E30320FB
S31500001F204CF40320D2E3032094F5032094F4032019
S31500001F3054F403201CF7032024F703203CE303207A
S31500001F40C8F50320D4F503202CF403207A696762D0
S31500001F5065652D737461636B2E63000084F6032040
S31500001F6081AA010064F403201DB701003CF7032099
S31500001F707900010094F403202594000094F50320D1
S31500001F8025F600008CF4032073890000ACF40320CE
S31500001F9021CD000010F70320F79D0100D4F50320A2
S31500001FA051D600002CF40320CD2400001CF703209A
S31500001FB0EDB0010024F7032027B1010054F40320FB
S31500001FC081EE00001CF70320EDB0010044F403206D
S31500001FD0EB7E000030F70320A974010060F60320B1
S31500001FE0D7870100000000000000000030B505465C
S31500001FF00C4683B0282200212046FFF7AAFC681E63
S31500002000A5701ED0801E01284FD8032D0CBF0125B8
S3150000201000252A4604F11C01E01CFFF715FA35B12C
S31500002020208840F00200208007F084FF606120884D
S3150000203040F0010020801021E01C00F0A0F8B0BBA9
S3150000204006E0DFF870542868007D10F0300F01D1EB
S31500002050B2203EBD208840F00200208008F015FA2C
S315000020606061E01C00F0AAF8684600F0BBF848B1D1
S315000020700822694604F11D00FFF728FC208840F07D
S315000020800800208028684069C00303D4208840F0F7
S3150000209010002080FFF723FF0028CCD02868406A74
S315000020A0A061208840F00400C4E770203EBDE01C1B
S315000020B00EF040F800203EBDF0B587B004460D4650
S315000020C016461F46684600F087F83EB1082231469C
S315000020D00DF10200FFF7FAFB45F040052FB1102283
S315000020E039460DF10A00FFF7F1FBDFF8C803006877
S315000020F04169A1432943416148040CD5BDF800005C
S315000021000A0A00F40E4002F4E242104301F0FF0115
S315000021100843ADF800001A230822694600200BF098
S31500002120F8FD07B0F0BD00230022C5E7DFF8840301
S315000021300068416941F48041416147F2FF10014066
S31500002140F1E700B587B007F008FF684600F044F8ED
S31500002150DFF860030068BDF800204169090A120A29
S31500002160090202F0710241EA0241BDF8002002F0C4
S31500002170FF02114341F48041416107B000BD38B50B
S3150000218004460D46002204F02EFB40B9FF222946E4
S31500002190204604F028FB401E8041C00F32BD0020BF
S315000021A032BDC4480068007D00F03000102818BF1A
S315000021B0202801D1012070470020704710B588B053
S315000021C00446684600F008F810220DF10A01204680
S315000021D0FFF77CFB08B010BD01461A230822012038
S315000021E00BF097BD10B50446B248006888B0406948
S315000021F0810705D50822FF212046FFF7AAFB0AE042
S3150000220040060AD56846FFF7E7FF08220DF10201EE
S315000022102046FFF75BFB012000E0002008B010BD60
S3150000222080B531B9A3490968097D490601D5002061
S3150000223002BD0246002300210020FFF73DFF0120DA
S3150000224002BD0021ECE70121EAE71CB50446684619
S31500002250FFF7C8FF40B1082221466846FFF780FB1A
S31500002260401E8041C00F16BDFF220821204604F003
S31500002270BAFA20B106210020FFF755FF04E000233B
S3150000228022460021FFF718FF012016BD2DE9F04771
S315000022900D4692B081461646012100241F460BF0DA
S315000022A016FE8046B80707F0010A0BD507A948466F
S315000022B00BF004FB20B100F06BF806B134601AE0B5
S315000022C0A62019E0B8F1FF0F19D007A940460BF078
S315000022D0FCFD010010D10DB100F05AF826B1764888
S315000022E0006800EB88003060BAF1000F03D0BDF83B
S315000022F01C00C00646D5002012B0BDE8F0876D4F21
S3150000230056B1FFF7ECFD18B13868017D890701D594
S31500002310346001E024303060FFF743FF0028CFD05F
S315000023206846FFF759FF08220DF102014846FFF7FC
S3150000233017FB28B13868007D00F044004028BFD064
S31500002340BAF1000F04D038684069C00348BF0124C1
S31500002350B5B1FFF7C4FD002801BF3868007D00F065
S315000023608400842807D12B46082249460DF10A002D
S315000023700BF07AFD04E010220DF10A0100F00BF8D3
S31500002380002CB8D04146182005F04EFEBB20B3E71E
S3150000239010220DF11F012846FFF798BA80B50023D9
S315000023A000220021FFF772FF401E8041C00F02BDD0
S315000023B000B583B06846FFF715FF10B16846FFF712
S315000023C0EDFF0EBDF0B585B00746FFF788FD00248A
S315000023D00025A8B104F08AF990B103A8FFF702FF1F
S315000023E070B12FB1082235493846FFF7B9FA38B12E
S315000023F0304E3068017D890705D5417B112901D012
S31500002400702045E044889FB10822394603A8FFF7AB
S31500002410A7FA68B108208DF80000082202208DF87E
S31500002420010039460DF10200FFF750FA0A2107E0D4
S3150000243008208DF80000012504208DF801000221F6
S31500002440684605F0FCFE0746FF2F20D0FFF7A9FEE1
S3150000245000B102203168097D89074CBF04210021A3
S31500002460084340F001033A4600212046FEF7CAFD24
S31500002470040006D0012000F00DF815B11049012026
S315000024800870384605F058FE0CB1002000E0182010
S3150000249005B0F0BD0B490C4A09780B0018BF00289F
S315000024A003D0090410460CF0B3B900201070704731
S315000024B0000000004CF40320B0E20320A4F5032042
S315000024C051FF032036FF03202CF4032000B583B010
S315000024D0082200216846FFF73CFAFFF700FD18B90D
S315000024E00AF0DDFB0D2100E00421684605F098FDA9
S315000024F00020FFF7CFFF07BD38B5044600200DF0DA
S3150000250043FE050007D1DFF82C26DFF82C1600F075
S3150000251092F8002032BD0DF027FE002101E0AD1C2F
S31500002520491CC9B2814212DA2B8822469A4202D14C
S31500002530DFF8081608E01A464FF6FF739A42EED106
S315000025402C802246DFF8F81500F075F80EE0DFF86B
S31500002550F415097851B90346DFF8D825DFF8E815F0
S3150000256000F0B3F8DFF8DC1501200870012032BD59
S3150000257080B5DFF8D015002008700DF0F7FDDFF804
S31500002580CC150020087001BD80B5DFF8C005DFF866
S31500002590C01500F04FF8DFF8B40500780DF0F4FD33
S315000025A040B9DFF89025DFF8AC1500F044F84FF697
S315000025B0FF7002BDDFF89415DFF890250978491CF5
S315000025C01170008802BD1FB500F05CF9DFF88815B0
S315000025D00870087838B9DFF88415012000F03BFB55
S315000025E000F00FF91FBDFFF7C3FFDFF86C15097880
S315000025F001208DF800008840019005208DF8080024
S315000026000FF2E5100390684607F09DFB04000AD020
S315000026102346DFF82025DFF8481500F056F8204657
S3150000262000F00CF91FBDDFF83005DFF8381500F0B3
S3150000263001F81FBD0278012000F00DBB10B586B071
S31500002640182200216846FFF784F9FFF79DFF4FF631
S31500002650FF718842ADF8080008D1DFF8FC04DFF806
S315000026600815FFF7E7FFFFF7AEFF2CE00346DFF89C
S31500002670C424DFF8F81400F028F8DFF8DC0400784A
S315000026808DF80B00DFF8D00400780DF029FF8DF8E7
S315000026900A0000F0A6F900F01FFF694606F06EF981
S315000026A00446DFF8CC04DFF8C81400F0C3F82000B5
S315000026B009D02346DFF87C24DFF8B81400F005F8CB
S315000026C0204600F0BBF806B010BD012000F0C3BAEA
S315000026D080B5DFF8A414097849B3902824D1DFF82F
S315000026E05424DFF89814FFF7A6FF00F07AF90728BC
S315000026F01EBFDFF884040078082809D0DFF88004BC
S315000027000078C00704D400F011FA40F010000870F9
S315000027100DF04AFF00F001FABDE8044000F5FA6149
S31500002720DFF860040CF074B8BDE8014086E701BD2F
S3150000273010B50C0008D02246DFF84C14FFF77BFFDB
S315000027402046BDE8104079E000F04BF910B1BDE835
S31500002750104073E710BD10B50446DFF83004DFF80B
S315000027602C1400F067F882B0E07800283BD0207B7C
S31500002770022838D12088DFF8BC23DFF81414009033
S315000027800120A37800F06DFA201D00F0AFFADFF803
S3150000279004040078A8B10822DFF8FC13201DFFF717
S315000027A0DFF870B1DFF8F413012000F05AFADFF811
S315000027B0E80300F09BFABDE81C408BA1012000F065
S315000027C04ABA89A1012000F046FA2088FFF794FE54
S315000027D048B9DFF86023DFF8C813FFF72CFFBDE820
S315000027E0164001202AE013BD01894FF440721142C0
S315000027F002D0017880789BE790F90120C178406883
S31500002800A9E710B5DFF87003DFF86C1300F012F8D3
S31500002810087809280BDBDFF874030078002814BF5A
S315000028209424AB24204600F009F8204610BDBDE8EC
S3150000283010405DE00078401C0870704710B50446F3
S31500002840DFF8F022DFF85C13FFF7F5FEDFF8280368
S315000028500378DFF81C030278DFF83003017820469E
S3150000286000F020FE0DF082FCDFF80C13002008704B
S31500002870DFF8D8120870DFF8F8120870DFF80C13CA
S31500002880087010BD80B5DFF8D002007868B90DF089
S315000028908BFE00F00F00B0490B30087001200A785B
S315000028A0DFF8041300F0D7F903E0AB48AA49FFF7B5
S315000028B0C1FFDFF8F802006840B902BD481CA6490E
S315000028C0087008781B28A4BF0B200870B748A249D7
S315000028D000680978C840C007F0D59F4AB348127807
S315000028E00068012191408843B0490860104602BD46
S315000028F080B5A149AE48097850F821308D4AAD49D6
S31500002900FFF7E3FE00F022F8030006D0894AAA4941
S31500002910FFF7DBFEBDE8014073E700F062F801282F
S3150000292018BF032803D0052818BF072801D1A348DC
S3150000293000E0A34800689D49086001200A68A14993
S3150000294000F089F9FFF73FFE002002BD8A4810B566
S31500002950007803288CB017D14FF4005000210843AB
S3150000296040F4C85040F00400ADF8000096480DF061
S31500002970E9FD20B9102295499348FEF7A7FF944830
S31500002980007880B1934918E000F02BF80428E3D0D2
S3150000299079490978002007291EBF7749097808294F
S315000029A0DCD10221DBE700F01CF807281EBF7248C5
S315000029B0007808280CBF8449874910220DF10200CF
S315000029C0FEF784FF6846FEF7F7F8040006D13020CC
S315000029D0FEF76BF9040008BF0DF0F8FD20460CB0B9
S315000029E010BD6548007870470000000010B57B48B0
S315000029F0006882B07024B8B1FFF7F3FFA0B9FDF705
S31500002A00C3FE60B972485C490078002814BF0120F3
S31500002A1003200870FDF7AFFDFFF76AFF03E0012111
S31500002A20B42001F09EF80446009401206C4B00F09F
S31500002A3036F8204616BD5349002010B5087082B0FE
S31500002A40FFF7CFFF80060AD5FDF795FD0AF07FF95F
S31500002A50644B384A6449FFF738FE01201BE0FFF754
S31500002A60C0FFC0060CD5FDF75BFD044600940120AF
S31500002A705E4B00F014F8200010D00AF068F909E067
S31500002A800121B42001F06DF8044600940120584B52
S31500002A9000F005F82046BDE81640CFE613BD254AEE
S31500002AA0544900F0D8B810B50446FFF79AFFC0069F
S31500002AB082B030D5009401204F4BFFF7F0FF032C76
S31500002AC004D01E2C18BF652C0CD01AE000F02EF88E
S31500002AD040F0200008704FF4FA612A480BF098FE87
S31500002AE0002016BD00F022F800F0DF0008700DF09F
S31500002AF05BFD00F012F800F5FA6122480BF088FE43
S31500002B0004E00AF024F9AE20FFF798FE00F00EF874
S31500002B1000F0EF000870012016BD4FF4FA61B0FB1B
S31500002B20F1F14FF4FA6202FB1100704712481249A4
S31500002B300078704740D3020094CF0200D0CF020045
S31500002B40F0CF0200FDFE032004D00200FEFE0320AB
S31500002B5028D0020048D00200FFFE032078D00200F1
S31500002B608CD00200B0D00200CCD00200F0D002001F
S31500002B7001FF032004D10200FAFE03202CD102003B
S31500002B8002FF0320A4E8032040D1020000FF032037
S31500002B906CD10200FBFE032078E8032098D10200E6
S31500002BA0C4D10200F0D1020008D20200A0E803203E
S31500002BB048DF032034D2020044D202006CDF032037
S31500002BC070DF032070D2020090E8032060D3020079
S31500002BD0FCFE032080E8032050D3020058F30320B4
S31500002BE094D20200A4D202009CD20200D0D20200EB
S31500002BF000D3020084D202001CD302004FF6FF71FC
S31500002C00884207D0010A01D0002070471B49097885
S31500002C10084000D001207047F8B504460D46164618
S31500002C201F46FFF7EBFF58B13A46314601200DF03B
S31500002C301BFE1DB110A101200DF00EFE10480480F0
S31500002C40F1BD80B5FFF7DAFF20B1BDE802400120F3
S31500002C5000F0F3B801BD0CB480B50A4602AB012101
S31500002C6004E00CB480B50A4602AB0021FFF7D4FF9E
S31500002C7001BC5DF80CFB00000D0A0000E2E3032036
S31500002C80D0FE03202DE9F04104460D46164698462F
S31500002C90FFF7B4FFA0B1002710E0EA5D41462046E9
S31500002CA0FFF7DFFFF81007EB10700011A7EB00101D
S31500002CB0062804BF2046FFF7C4FF7F1CB742ECDBA3
S31500002CC0BDE8F081002B14BF30A331A3DAE738B595
S31500002CD004460D4628460DF07FFE0246691CFFE7B6
S31500002CE0204601B0BDE830402AA3CBE700B587B047
S31500002CF0017806913E224178059181780491C17848
S31500002D000391017902914179019181790091C37909
S31500002D10254826490088FFF7A4FF07B000BD0146F5
S31500002D200022022009E0204800880123704702465D
S31500002D301D48008819A1FFF78EBFF8B504460D4659
S31500002D401646002708E014A200F017F814A1FFF7B2
S31500002D5088FF00F015F87F1CA7420DDAFFF7E3FFA6
S31500002D60082205EBC701FFF7ADFF300002D1781C42
S31500002D70A042E8D10BA2E7E7F1BD0B4800887047F7
S31500002D8009480088FFF75DBF000000002578200095
S31500002D902578000025630000000000002570000073
S31500002DA0202570000D0A0000D0FE0320680D0300E8
S31500002DB0002080F3118870472DE9F0410446012573
S31500002DC0012C94B00F4690461E461BD10AA82449F2
S31500002DD0242206F05DFF68460AA9242206F058FF61
S31500002DE01020012C18BF022CADF82400ADF82600E7
S31500002DF000D014D1012E0197ADF80C8004D14FF408
S31500002E00805005E001200BE0022E03D14FF4405024
S31500002E10ADF80A00694601200EF0D7F80546E8B27B
S31500002E2014B0BDE8F08180B50EF066F9C0B202BDFF
S31500002E3080B50EF0E5F9C0B202BD80B50EF072FAAB
S31500002E40C0B202BD0CB480B50A46014602AB0548C5
S31500002E500DF000FC02BC00205DF80CFB0000000039
S31500002E60C00D0300B5120100704700004E4800680F
S31500002E70000E704780B5FFF7F9FF60B94B4A4AF676
S31500002E80E85111604A4A4A49096841F00401116053
S31500002E900021464A1160022805DA4648454900687D
S31500002EA040F40050086044484349006820F440104C
S31500002EB040F48810086041494048006840F480703A
S31500002EC0086001BD3E4901200860704700B583B027
S31500002ED0FFF7D0FFFFF7F6FF0EF0AFFA0EF050FB4C
S31500002EE00EF076FF374800F058F88DF80300684674
S31500002EF00FF04AF90FF070FC0FF01AFD07BD40F213
S31500002F0001600FF077BD0FF02FBE0FF02EBE80B51B
S31500002F10002100200FF090FEBDE801400FF0E0BE5A
S31500002F200FF0DFBE03200BF0CCBA80B500F09EF8A0
S31500002F300C2801D3244802BD234909E080B500F0DE
S31500002F4099F822490204120E51F8221000F0FF00EF
S31500002F5001EB800002BD000010B500F087F80446C2
S31500002F6000F088F8C0B208B9012C07D1072C11D897
S31500002F70DFE804F004100608080A0C0E002010BD55
S31500002F80092010BD022010BD032010BD0B2010BD6E
S31500002F90062010BD44F0800010BDD0E90023CDE925
S31500002FA00023012070470000FC81E00F90310E40A5
S31500002FB098310E4064310E4020400E4000000E4015
S31500002FC010300E40C0E50200D0E5020024E7020002
S31500002FD010B50FF0B6FE04460FF0AFFE002000213C
S31500002FE024FA01F2D20712D5244830F81100062837
S31500002FF026D1234840884FF20F01884219D1204834
S315000030000088000A0C2814DA1D48008813E0491CC1
S3150000301089B21129E4D31B490880088840F201715E
S31500003020884205D11848D0E900231848C0E9002392
S3150000303010BD4FF4C060124A4CF23C315180EAE7B1
S3150000304040F20721884201BF0D4949884FF20F021D
S315000030509142E0D10A49098840F207229142DAD129
S3150000306007494CF23C3048800888D4E70548008878
S31500003070000A7047034800887047000068D90200BC
S3150000308000000020C4FE032094000020E8EE032088
S315000030902DE9F04FC54D804695F83800400785B0BC
S315000030A006D5286C2F6DC24E03900024A14606E07B
S315000030B0E86BEF6CBF4EDFF8009303906C6D95F8EC
S315000030C0380000074CBFBD4ABD4AB9EB040A07D019
S315000030D064204FEA5A0100FB0710B0FBFAFB01E03F
S315000030E04FF0000B03980290CDF8049000943346FD
S315000030F0B44940460DF0A2FB1FFA8AF001900096F3
S315000031001FFA8BF3BAB2B04940460DF097FB95F81B
S31500003110380040070BD4AAF19C00874207D1686D9E
S31500003120AA49884203D2AA4940460DF087FB039874
S31500003130814528BFA04204D23246A64940460DF03A
S315000031407DFB4046FFF779FE286E002804BF686EB7
S31500003150002834D0A04940460DF07EFB0026286E9C
S31500003160F040C0070AD59D4800F0E5F830B19B480D
S3150000317050F826208AA140460DF06EFB761C202EC4
S31500003180EDDB0026686EF040C0070FD5934800EBD4
S315000031908600D0F88000007840B1904800EB8600A9
S315000031A07FA1D0F8802040460DF056FB761C122EEB
S315000031B0E8D3404605B0BDE8F04F0DF039BB4046B8
S315000031C005B0BDE8F04F86490DF038BB70B5044632
S315000031D0FFF750FF40F20151401A744D13D0401EC4
S315000031E013D040F2FF11401A11D04FF44071401A2B
S315000031F016D0401E2AD0401E4AD0401E73D0401E14
S3150000320000F08D8070BD77496AE0774988E0D5F88F
S315000032109830D5F89420754920460DF00FFB79E0DB
S31500003220734900F08CF8E86EC0F3400010B17149A4
S3150000323000F085F8E86EC0F3807010B16E4900F0BA
S315000032407EF8E86EC00F65D06C4949E06C4900F025
S3150000325076F895F8680010F0030F03D000F067F8D1
S3150000326000F074F8A86EC0F3C01018B16A6F654913
S3150000327000F06CF80026A86EF040C00704D500F0F8
S3150000328059F808B100F05EF8761C082EF3D341E039
S315000032905D4900F054F800F04AF800F057F8A86EBF
S315000032A0C0F3802010B1594900F049F8A86EC0F368
S315000032B0C03018B16A6F534900F048F80826A86E66
S315000032C0F040C00704D500F035F808B100F03AF830
S315000032D0761C102EF3D395F8680000061AD14C49D7
S315000032E000F02DF816E04B4900F029F800F01FF821
S315000032F000F02CF81026A86EF040C00704D500F0A8
S3150000330019F808B100F01EF8761CF6B21A2E01DA8A
S31500003310202EF0D32046BDE87040FFF78EBD3E4913
S3150000332000F00DF800F003F800F010F8F2E76A6C10
S315000033303A4970473A4850F82600007870472046C8
S315000033400DF07CBA3648374950F8262020460DF055
S3150000335075BAF8B50446344D344E002706E02046CB
S315000033600DF07AFA2046FFF768FD7F1C3078A8B189
S3150000337055F8043B2E49324620460DF06DFA16F8F4
S31500003380010B0028FBD1307800281EBFFFB207F0E2
S315000033900300032814BF03A103A1E0E7F1BD000069
S315000033A0202570002C2000000D0A000000000020DF
S315000033B0DCDF0200E4DF020030DD0320ECDF020088
S315000033C0F4DF0200FCDF02002CE002009C0000207B
S315000033D068E0020094E00200B4E00200F8E30200B4
S315000033E0E4E00200FCE002003CE1020088E10200A9
S315000033F0A4E10200BCE10200F8E102002CE20200B6
S3150000340068E2020090E20200B4E20200CCE20200AE
S3150000341014E3020044E3020060E302006CE10200F0
S3150000342090E30200ACE2020004000020C0E40200C7
S3150000343084E3020001207047012070470120704795
S31500003440704700207047002070470020704700201A
S3150000345070470120704701207047B5207047002053
S3150000346070470020704700207047002070470020FA
S3150000347070477047002070477047B5207047704707
S3150000348000207047704700207047B520704770478E
S31500003490002070477047704770477047704700209C
S315000034A07047704770B50C4615461E4601000CBFA6
S315000034B00F4A104A034610490120FFF7CCFB32465B
S315000034C00E490120FFF7C7FB2B462246BDE8704098
S315000034D00B490120FFF7BFBB0A48006800780128A6
S315000034E001D1022070470748006800787047000045
S315000034F0D0F90200E0F90200A8F90200E8F902009A
S3150000350000FA020058F3032000207047704700209D
S315000035107047002070470020704700207047002049
S3150000352070470020704700207047002070477047A2
S31500003530B520704700207047002070470020704774
S3150000354070477047704700207047B5207047704736
S31500003550704700207047704742DE704738B5044612
S315000035600D4602F0FBF802F0FFFE0FF01FFC2946A5
S3150000357020460AF0E4FF2B4622466B490120FFF75E
S3150000358061FC29462046BDE83440E5E700E0001D21
S315000035906649884203D20168B1F1CD3FF7D064494C
S315000035A0081A704763482DE9F041634C00685F4D87
S315000035B0A0654FF4206661480068E06560480068D1
S315000035C020666048006860665F480068A0665F48DD
S315000035D00068E0665E48006820675E4800686067CD
S315000035E05D480068A06794F8380040074CBF276C18
S315000035F0E76B0FF096FA00212165874224BFA5F1FB
S315000036002001B942B84660651DD3B8696064F8699F
S31500003610A064A06DC0F30800062818D1606C4F495D
S31500003620884214D34E49884211D200884DF6426131
S3150000363088420CD16068C4F8940040F20176A06814
S31500003640C4F8980003E000216164A1648046606DBF
S315000036504449884238BF0846FFF798FFE0640021D6
S31500003660002004EB8002401C0628D167F9DB00200D
S3150000367003E0C0B204EB8002D167A84527D255F813
S31500003680041D364A9142F8D3354A9142F5D2CA070B
S31500003690F3D5002204EB8203DB6F8B4202D0521C6F
S315000036A0062AF7DB062AE8D1020014BF401E0520D1
S315000036B0DFE7E16F002204EB820304EB8205D3F817
S315000036C08030EB67521C052AF5DBC4F890100146E2
S315000036D0481EC9B20029ECD1A06DC0F3080003282A
S315000036E008D0042809D005280AD006280BD00C28B3
S315000036F00FD011E040F6012613E040F6022610E056
S3150000370040F603260DE0B6F5206F0AD140F60426F2
S3150000371007E040F6052604E018B1312838BF40F628
S3150000372007263046BDE8F0813CD9020030DD032093
S3150000373030DD032004ED00E00000002024ED00E071
S3150000374000E300E004E300E028ED00E02CED00E0FB
S3150000375030ED00E034ED00E03CED00E02005000037
S3150000376026BA02009C0000200E490F4808600F4947
S315000037700F4808600020704700B170207047002095
S31500003780704780B500F018F8FF2801D1A32002BDCC
S31500003790002002BD00207047704700BF0548007832
S315000037A07047000054F30320D71B030058F303208F
S315000037B0B61B03007CF1032080B500F021FFFF2833
S315000037C018BF002002BD002101707047007800B1CB
S315000037D00120704702F05BBE02F067BE0020DFF8F2
S315000037E0601701EBC0010979FF2904D0401CC0B263
S315000037F00A28F4DBFF2070470021DFF8442702EB9C
S31500003800C102127982420BD1DFF8342702EBC102E2
S31500003810FF2010710020DFF8282742F8310070479A
S31500003820491C0A29E9DB70470021DFF8142702EB5F
S31500003830C1021279824204D1DFF8040750F8310040
S315000038407047491CC9B20A29EFDB002070470020E7
S31500003850DFF8EC2602EBC002FF2111710021DFF830
S31500003860E02642F83010401C0A28F1DB70472DE9AB
S31500003870F04F8FB081461C46FF20032C8A46174620
S315000038808DF8110005DB189D2878400707D5052C13
S3150000389003DA01200FB0BDE8F08F287900E0A878A0
S315000038A08DF80800FFF79AFF1C9E834626B1BBF1F0
S315000038B0FF0F08BFB420EDD000208DF812000AAA31
S315000038C038790DF11201FFF7D2FD58B1BDF8340079
S315000038D038809DF81200FFF74FFF00288DF8100082
S315000038E03CD114E0387900F08BFE8046B8F1FF0F2A
S315000038F008BFA320CED03879FFF743FF8DF810001C
S3150000390060BBDFF8400600EB0810408838805FEAAD
S3150000391009000CBF50464FF6FF70019000217888D1
S31500003920DDF86480009042463B889DF808000FF061
S315000039305EFD18B1F88840F02000F88005960697DD
S315000039400795ADF820A0ADF822408DF824908DF8AB
S31500003950258004A905A8FFF7E2FD10B19DF8100027
S3150000396098E73A46514648460FF060FDA04222D3FA
S315000039701B980390E3B21A9802903A460DF1110093
S315000039800190009551464846FDF75AF88DF810000B
S31500003990AEB1A0B99DF81100FF281ED0BBF10A0FE9
S315000039A01BDADFF89C1501EBCB010871DFF89005F7
S315000039B040F83B6011E074208DF8100010E0BA2842
S315000039C008D1B879C00605D500208DF81000012071
S315000039D002F0F7FC9DF8100010B911200FF047FE19
S315000039E0FFF7D8FEBAE710B586B0088100931346F4
S315000039F0089C04940A460024039402940146012478
S31500003A0001940320FFF733FF06B010BD10B582B056
S31500003A1000240094FFF7E7FF16BD10B586B0089C9A
S31500003A200494009300240394029413460A46012446
S31500003A30014601940620E5E710B582B00024009403
S31500003A40FFF7EBFF16BDF0B50446022C85B00D4618
S31500003A5016461F460BD16946E8B204F040F801004D
S31500003A6013D19DF8010030719DF8040070713B463A
S31500003A700B9804903246002003900290019029464C
S31500003A800A9800902046FFF7F2FE05B0F0BD1CB57F
S31500003A9000240194049C0094FFF7D5FF16BD2DE980
S31500003AA0F0418AB00446884616461F46002505A9F9
S31500003AB0284604F014F8010022D19DF814100129BB
S31500003AC002BF9DF815102279914202BFBDF816106B
S31500003AD06288914210D19DF8180060710497002009
S31500003AE00390029001900096434622462946022002
S31500003AF0FFF7BDFE010003D16D1CEDB20C2DD6DB28
S31500003B000AB0BDE8F08180B50A000BD10346DFF8A4
S31500003B103804DFF838240088DFF83414BDE8005094
S31500003B20FFF79FB80346DFF82004DFF82824008853
S31500003B300091DFF82414FFF794F801BD00B5DFF813
S31500003B401C24136883B001A900220B608DF80500C0
S31500003B5001AB0320009036214FF6FC7003F0B3FE54
S31500003B600EBD10B5FF280C4605D1DFF8F413022070
S31500003B70FFF771F8FE202146BDE8104070B50446F7
S31500003B800D4604F0DAFE064633462246DFF8D41325
S31500003B900220FFF760F8300004D11DB12046FFF780
S31500003BA0CDFF0646304670BDF8B50D46044628885A
S31500003BB016461F4608B10020F2BD204600F0F1FE71
S31500003BC070B93B46324629462046FCF7DDFC68883C
S31500003BD048F22101884203D171782046FFF757FC4D
S31500003BE06888B0F5004FC4BF08200FF058FD0120CB
S31500003BF0F2BD2DE9F04788B081460E4692469846BA
S31500003C0003F0B3FB8DF8089003960546119F0497C1
S31500003C10ADF816508DF818A08DF81980109CADF8E7
S31500003C201440FCF7B3FD8DF81A00FCF7B1FD8DF8D2
S31500003C301B0004F095F98DF81C0002A8FFF76DFC37
S31500003C40A8B923463A46314628460FF049FF70B9CF
S31500003C5023463A4631462846FFF7A6FF38B9019073
S31500003C60009523463A46494630460FF061FA08B0B9
S31500003C70BDE8F0877CB50E46154630881C4608B967
S31500003C8084A20AE040F20911884208BF82A204D049
S31500003C90B0F5827F0CBF81A281A201957088B249DE
S31500003CA0009002203388FEF7DCFF308858B1032DE0
S31500003CB009DB2078A378AD49C0074CBFAC4AAD4AB2
S31500003CC00220FEF7CEFFBDE87C4076A10220FEF77B
S31500003CD0C2BF2DE9F04F83B01F000C9C0D9E81469C
S31500003CE08A4615460AD0A44AA4490220FEF7B9FF1F
S31500003CF03346224629464846FFF7BCFFDDF83880A2
S31500003D004046FFF791FD83464046FFF775FD002FBD
S31500003D1004BF2888002806D16888B0F5004FBCBFCC
S31500003D2008200FF0A4FC01200FF0B9FC36B1307862
S31500003D30C00703D500F00EF800F0B7F9BBF1000F8D
S31500003D4002D000F007F8D84700F004F8FFF79BFB15
S31500003D50BDE8F78F0197009623462A465146484606
S31500003D60704710B50446903882B00CD0401E23D060
S31500003D70C01E21D0801E1FD0801E1DD013380428DF
S31500003D801AD9113826D1FCF7FBFC00907C4B7D4AF2
S31500003D907D490220FEF75FFFBC2C08D17B4902203B
S31500003DA0FEF759FFFFF7C3FBFFF7C2FB01E00AF07E
S31500003DB029F8FFF7BDFB0DE0912C03D1704B714A3A
S31500003DC0734902E0734B6F4A73490220FEF743FFC3
S31500003DD00FF09DF8204610F048F8204610F04FFAF4
S31500003DE0204610F01FFD204610F06DFD204611F014
S31500003DF02AF82046FEF76CFC204611F002F9204610
S31500003E0011F0EAF92046FFF79EFB18B1BDE81C4009
S31500003E1062495BE713BD80B561480068009068465B
S31500003E2004F09BFE02BD80B50020FFF7A5FC5D48AF
S31500003E30006880B16846FCF758FE60B959490968C0
S31500003E409DF800000978884205D0012904BF9DF835
S31500003E500000022801D1FFF7DEFFFFF79BFC01BD42
S31500003E6038B5504909680446702089B10D78208913
S31500003E700090012D08BF0225E37A4B4A4B490120E9
S31500003E80FEF7E9FE21462846BDE8344004F076BD3B
S31500003E9032BD00005A444F0053450000484100001F
S31500003EA03F3F00000000000010B50446FCF761FC2F
S31500003EB00020215CFF2904BF00212154401C10284A
S31500003EC0F7DB0020207410BD13B582B0002000245B
S31500003ED00CE037499DF80E2011F83010914203D1BD
S31500003EE0334901EBC0014C68401CC0B2304901EBBC
S31500003EF0C00149680029ECD19DF80C009DF80B30F3
S31500003F009DF80A202B4900900220FEF7AAFE9DF894
S31500003F100D0020B1024608A10220FEF7A2FE04B958
S31500003F2006A4BDF80830224604B0BDE81040224978
S31500003F300220FEF790BE00002E2564003F3F3F00A2
S31500003F402CF103207CF10320D0FE0320A0F2020016
S31500003F5098F20200B8F20200A8F20200C0F20200D3
S31500003F60C4F2020000F3020018F3020048F3020054
S31500003F705CF3020064F3020078F302006CF30200C3
S31500003F8098F3020090F3020080F30200A4F302000B
S31500003F90C4F30200DCF30200D0F30200E4F30200F3
S31500003FA014F4020058F3032034F4020018F402005B
S31500003FB074F402003CF4020054F40200FFF75CBA09
S31500003FC0DFF83808DFF83818007882B08DF803007B
S31500003FD0DFF830080088ADF80600DFF82C08008806
S31500003FE0ADF8040000208DF80200ADF800000120B5
S31500003FF00870DFF818189DF803000870BDF8060071
S315000040004880BDF8040088809DF8020088719DF8FC
S315000040100110DFF8FC0700EBC100DFF8F01788603D
S315000040209DF80000087302B0012048737047DFF85E
S31500004030D00700787047DFF8D41701EB0010407BFB
S3150000404000F001007047412818BF422803D04328DA
S3150000405018BF442801D1012070470020704741282D
S3150000406018BF422801D1012070470020704743281D
S3150000407018BF442801D10120704700207047F8B5C9
S315000040801546069A04461E4600F04EFA60B1042113
S3150000409000F05BFC070007D02046FFF772FB3246B4
S315000040A029462046B84790E0F1BD2DE9F04383B09C
S315000040B00446160098461EBF0A9F002F5FEA0800B6
S315000040C00D461DD038787188000730794CBF4022E4
S315000040D0802200F029FA98B1082100F036FC8146CA
S315000040E070B13079FFF74DFB0B980190009743466E
S315000040F0324629462046C847BDE8F743FFF74ABB84
S31500004100BDE8F783F8B5164605461A4600F00CFAE0
S31500004110D8B1069C21000BD1022100F016FC040048
S3150000412013D02846FFF72DFB31462846A0470BE063
S31500004130102100F00AFC070007D02846FFF721FBF4
S31500004140224631462846B8473FE0F1BDF8B5154648
S3150000415004461A4600F0E8F908B98620F2BD069929
S31500004160002689B9202100F0F0FB07000CD020467C
S31500004170FFF707FB0998089B079A009029462046F7
S31500004180B8470646FFF706FB3046F2BDF8B50446CB
S31500004190A5682078FFF7F5FA002612E02868F6B23F
S315000041A0142111FB06F1471820783988FFF748F9E2
S315000041B00121384600F0C9FB01001CBF2078884762
S315000041C0761C2979F0B28842E8D3BDE8F140FFF7C2
S315000041D0E1BA10B500240BE0E0B2FFF72CFF30B1D6
S315000041E0DFF82806E4B200EB0410FFF7CFFF641CEB
S315000041F0FFF71DFFE1B28142EED310BD10B586B0C8
S3150000420000248DF80800ADF80A108DF80C30ADF8D2
S315000042100E200194009400230898ADF810000022A7
S3150000422001A902A800F0A5F8019806B010BDDFF8B4
S31500004230E415002206E00B799B0602D5CB78D2184E
S3150000424092B20C318142F6D3DFF8CC0510447047A8
S315000042502DE9F0471746089C97F802A080462000F3
S315000042600E4699460CBFFD7825465046FFF7F7FEE9
S3150000427030B16A1ED2B2314640460FF006F920E050
S315000042805046FFF7F4FE30B1AA1E92B231464046C0
S315000042900FF013F915E0B9F1000F06D1200004D094
S315000042A0F878844238BF89200CD3002E2A4604D1E0
S315000042B000214046FDF74DFB03E031464046FDF741
S315000042C005FB0020BDE8F08710B5002301E05B1C6C
S315000042D0001D9CB28C4204D204889442F7D14088D7
S315000042E010BD002010BD0288B2F57C4FA8BF00F0BB
S315000042F00BB8DFF82005081A0C2190FBF1F082B20A
S315000043000021DFF81805DFE7DFF81415401A14213D
S3150000431090FBF1F082B20221DFF80805D4E710B570
S315000043200C460188628891420ED1017B22791142A6
S315000043300AD00188B1F57C4F04DBFFF7E5FF218940
S31500004340884201D1012010BD002010BD10B51446D1
S315000043500A88E3889A420AD10288B2F57C4F04DAC9
S31500004360FFF7C1FF2189884201D1012010BD00203D
S3150000437010BD2DE9FE4F002582B00446AA4607E08F
S315000043808068C0884519ADB20AF101005FFA80FA6B
S31500004390FFF74DFE824580F29580DFF870044FEA04
S315000043A00A11405C21788842DFF8600400EB0A10AD
S315000043B0E6D1D0F808B05046FFF73DFE0028E3D01E
S315000043C0002704E0B8F80A004519ADB27F1C9BF837
S315000043D00410F8B28842D7D2DBF80000FFB21421ED
S315000043E011FB07F100EB010821464046FFF797FF56
S315000043F00028E7D04FF0000908E030793021084264
S3150000440002D1F0782D18ADB209F10109B8F80810FB
S315000044101FFA89F08842D9D2D8F804001FFA89F920
S315000044200C2101FB09F14618224631464046FFF7AA
S315000044308DFF0028E1D0029800B106603079800631
S3150000444004D53046FFF7F3FE824603E0DFF8D803D3
S3150000445000EB050A0E9D280018D0039F00F036F8E1
S315000044600246338861882078DFF8C093FEF7E6FFBE
S31500004470E0B13079C0061BD500F028F80346039852
S315000044800090324661882078C8471CE00398D0B176
S315000044905746824600F01AF802463388618820782B
S315000044A0DFF88C93FEF7C8FF0028E2D17E200AE0F1
S315000044B0BDF8100000902B46324639465046FFF7AD
S315000044C0C7FE00E0862005B0BDE8F08F31464046C5
S315000044D009E730B5002403E01D7B2D0616D4641CC5
S315000044E00579E3B2AB4213D20368E4B2142515FB97
S315000044F004F52B441D888D42F1D1150006D0802A83
S31500004500EAD0402AEBD11D7B6D06E8D5184630BDB2
S31500004510002030BD80B5002201E080B5402200F0C9
S3150000452003F800B1012002BD38B50C46154600F06F
S3150000453067F8FF2801D1002032BD04E038B50C46EB
S31500004540154600F05FF8DFF8C43203EB00102A4688
S3150000455080682146BDE83840BBE74022FFE72DE9E9
S31500004560F04180460C461546FFF7DEFF002608B9E7
S31500004570FF201BE0002701E07F1CFFB2FFF757FD7D
S31500004580874212DADFF884023901405C40450CD0DC
S31500004590DFF878023B012A46C05C2146FFF7CEFFD2
S315000045A00028E9D0761CF6B2E6E73046BDE8F08191
S315000045B070B504460D46002601E0761CF6B2FFF7FC
S315000045C036FD86420FDADFF844023101405CA04234
S315000045D0F3D1280005D0DFF834020844407BC00739
S315000045E0EBD5304670BDFF2070BD80B50021FFF7CA
S315000045F0DFFFFF2801D1002002BDBDE802401AE519
S315000046000121D5E70021D3E780490001085C704706
S3150000461038B50C46FFF7F4FF01460020FF291FBFFF
S315000046207A4A02EB01118A68002A17D0002203E0B9
S315000046301B0648BF401C521C8D682D79D3B2AB4275
S315000046400BD28B68D2B21B68142515FB02F52B44DE
S3150000465025001B7BECD05B06EBE7C0B232BD70B524
S315000046600C461546FFF7CCFF0021FF281ED0674AEF
S3150000467002EB0012002301E0491C5B1C96683679A8
S31500004680D8B2B04212D29068DBB20068142616FB8C
S3150000469003F630442E00067B02D0760602D4ECE701
S315000046A03606EAD5CEB2A642E6D170BD002070BD70
S315000046B0002109E010B50446012100F005F8204666
S315000046C0BDE8104000F06AB92DE9F14F86B0884682
S315000046D003F046FC0490002500E06D1CFFF7A7FCE4
S315000046E0E9B2814280F080809DF81800FF2804D04E
S315000046F0FFF786FF0546FF2D7DD04448EDB200EB5F
S3150000470005169DF81800FF2803D1307B04998842CE
S31500004710E3D14FF0000A01E00AF1010AB168097914
S315000047205FFA8AF088425AD2B0685FFA8AFA00685D
S31500004730142111FB0AF144182089B0F5967FC8BFF1
S3150000474001F012FE4FF0000915E0D7F808B001207D
S31500004750009000235A46002101A8FFF70AFE5FEAEF
S31500004760080006D0BDF8062031783B46584600F0D2
S31500004770A7F809F1010921891FFA89F08842CBD2ED
S3150000478060681FFA89F90C2101FB09F1471838798D
S31500004790C006EED430788DF8040039462088ADF88E
S315000047A00600387940064CBF802040208DF808006E
S315000047B03888ADF80A002046FFF795FDADF80C00E5
S315000047C038794007F87805D50328BEDBB868D0F8F5
S315000047D000B0BCE70328B8DA07F1080BB7E79DF885
S315000047E01800FF283FF479AFB8F1000F04BF9DF819
S315000047F0180000F01FF807B0BDE8F08FD61B0300C5
S315000048002DFF0320B21B0300B41B03007CF1032021
S3150000481094F9020000F60200ECF10320A4F902006C
S31500004820B8F802009CF902008CF10320573400000E
S315000048305334000030B583B0044603F091FB0546BF
S315000048400120FEF7B9FF012C03D0FF2C08BFA842B8
S315000048502ED101237F22202100F02BF8102000907A
S3150000486001AB0022062100F028F801237F22212136
S3150000487000F01FF82020009001AB002200F01CF889
S3150000488001237F22222100F014F82020009001ABA2
S31500004890112200F011F802237F22232100F009F8EB
S315000048A02120009001AB07224FF4407100F005F87B
S315000048B037BD01A809F0CABD0821012011F095BB3A
S315000048C0F8B51D460446287980070E4617463BD59F
S315000048D0022200216846FDF73CF804B96C46012E19
S315000048E032D1062F09D1288870BB287940062BD4EF
S315000048F0012322467F21202024E0082F15D1288875
S3150000490040B9287940061FD4012322467F21212061
S3150000491009F0ADFD2888112816D12879400613D450
S31500004920012322467F2122200CE0B7F5407F04BFF9
S315000049302888072808D12879400605D4022322466C
S315000049407F21232009F093FDF1BD10B5047B0122E0
S3150000495000230C4206D1002010BD047B144218BF70
S315000049605B1C5200D4B28C42F7D30069DBB250F81C
S31500004970230010BD80B5FEF782FD0EF09DFABDE85E
S3150000498001400EF05FBE80B5FEF77CFD0EF0BEFA6C
S3150000499011F06AFDBDE8014005F0F2B97047FEF777
S315000049A0BABDFEF7BEBD0020704738B504460D46B9
S315000049B0FEF7D1FD29462046BDE83440FBF711BE7F
S315000049C0034A1070034801700020034908707047BD
S315000049D03BFF03203AFF03203CFF0320DFF8480794
S315000049E0006800687047DFF844170020087081F8F7
S315000049F0780081F8650081F8770081F87900FF205A
S31500004A0081F87A00002081F87B00DFF81C17086027
S31500004A1070476128A8BF572107DA4128A8BF372168
S31500004A2003DA3A28B4BF3021002116E2DFF8FC167B
S31500004A30DFF8F8260144104491F8661090F86500F6
S31500004A40081AC0B27047DFF8E416084490F865000B
S31500004A500844401C704700002DE9F04182B08046B2
S31500004A600D46002602E0DFF8C8160870B8F1000F00
S31500004A7009D16946E8B2FEF7D6F970B1262818BF03
S31500004A80012046D101E0E8B210B93046BDE8F68112
S31500004A9018F8010B8DF800006D1EDFF894060078FB
S31500004AA00D2804BF9DF800000A28DCD09DF8000000
S31500004AB0DFF87C1608709DF800000D2805D1012648
S31500004AC00027222807D1012006E00A28F7D0002671
S31500004AD02028F5D101270020DFF85016097804298F
S31500004AE0C4D8DFE801F0041E292D5900BEE716B12F
S31500004AF000F002F9BAE7002FB8D158B10220DFF86A
S31500004B002C160870DFF8240690F87800642862D125
S31500004B1006203DE09DF800007B2814BF01200320FD
S31500004B20EDE757EA0600EDD0DFF8000690F87700CB
S31500004B3011283BD103202BE00028F5D13EBBE1E74D
S31500004B40DFF8E80590F87A00FF289DF8000014BF0A
S31500004B50012400247D2801D1CCB9E5E7FFF759FFF0
S31500004B60102812DA002CDFF8C4150BD091F87A1051
S31500004B7000EB01108DF80000FF20DFF8B01581F87A
S31500004B807A00BFE781F87A0070E7002FFCD1052094
S31500004B9000F057F904200870002E06D000F047F9FF
S31500004BA008B100F049F9FFF71EFF5FE700F03AF998
S31500004BB090F87700401C81F8770091F8772091F8FB
S31500004BC07800114481F865000020DFF86015002E9A
S31500004BD00870EAD08CE7DFF854050078012805D183
S31500004BE09DF8000000F020F88DF80000DFF83C1575
S31500004BF091F878209DF800001144487000F012F9F1
S31500004C0090F87800401C81F878002FE742680AB9CE
S31500004C10806804E0826812786E2A03D140680860D2
S31500004C200120704700207047A0F141011A293CBFBE
S31500004C302030C0B27047DFF8F41491F87B301818B2
S31500004C40C0B2084490F865000844407870472DE9E2
S31500004C50F84F05460F4678B2FFF7F5FE8046384610
S31500004C60FFF7E4FE0024074600260BE019F8010BC7
S31500004C70FFF7DAFF83461AF8010BFFF7D5FF8345E6
S31500004C8004D00C352868C0B18246C146A9EB08009D
S31500004C90B8429AF800000CBF01210021421E924141
S31500004CA011EAD27F01D0284609E051EAD270DDD060
S31500004CB0002C0CBF2C460126E3E706B92046BDE8CA
S31500004CC0F28F38B500240EE060B2FFF7BCFE054651
S31500004CD0E0B2FFF7ABFE024629460120FEF7A8F830
S31500004CE000F0C8F9641C00F0B1F8EDD3BDE834401B
S31500004CF08CA101200BF0B0BDF8B5DFF838040090A8
S31500004D000024DFF8280490F8770088B1DFF828043B
S31500004D100078C00748BFFFF7D4FF0098E1B2FFF75D
S31500004D2096FF009038B9022000F08BF800F084F866
S31500004D30FFF759FEF1BDDFF8F0130860641C00F0C0
S31500004D4071F890F87B00401C81F87B00694600985A
S31500004D50FFF75CFF18B100F079F8DED351E0009858
S31500004D60806800783F284ED0002500260DE00720F9
S31500004D7000F067F800F050F800F059F81CBF6D1C01
S31500004D80EDB200283FD1641C761C00F05FF8009855
S31500004D90806831D2475DF0B2FFF74DFF390029D068
S31500004DA0B7F1620120D00F39022984BF091F0229F9
S31500004DB0DDD8752F08BFFF270ED0762F08BF4FF618
S31500004DC0FF7709D0732F08BF7F2705D0722F0CBF3E
S31500004DD047F6FF774FF0FF370121F0B200F040F8B9
S31500004DE08742C7D20420C3E7222818BF7B28C1D038
S31500004DF00520BDE70320BBE7405D20B100F00CF8BD
S31500004E0001D0032090E700F012F800288ED1009818
S31500004E10406811F071FB8BE7009880682844407861
S31500004E202A287047DFF80403DFF800137047DFF81D
S31500004E30FC0290F879007047DFF8F00290F87900EC
S31500004E402AE1DFF8E81281F879007047DFF8DC1212
S31500004E5091F87710E0B288427047401AC0B27047A6
S31500004E602DE9F8438846DFF8C41291F87B1008183C
S31500004E70DFF8B812C0B20A18002792F8652011446C
S31500004E804D1CFFF7D3FD8146A6480478002606E0B0
S31500004E909FB9012E18BF022E0FD11024761C4E4545
S31500004EA018DAA85D5FEA080103D0002E08BF2D2896
S31500004EB0F4D0782818BF5828EAD0FFF7AAFDA042F8
S31500004EC0B8BF04FB0707E9DB9849052081F879009C
S31500004ED0002000E03846BDE8F2830021C0E738B57F
S31500004EE00446FFF7A8FE2D280CBF012500252946FC
S31500004EF02046FFF7B5FF05B1404232BD70B50C46FE
S31500004F008A4991F87B100D18C6432CB1E8B2FFF719
S31500004F108DFDA0EBD670207068B2FFF794FD00EB14
S31500004F20D67070BD0D0A0000F8B50C4616461F4631
S31500004F306946FFF7E3FF05469DF8001030468842B4
S31500004F4088BF08468DF80000002F1ABF9DF80000A4
S31500004F50361A0026F6B2324600212046FCF7F9FC46
S31500004F609DF800202946A019FCF7B0FC9DF800002A
S31500004F70F2BD38B50C4601230822FFF7D5FF002104
S31500004F804A4222444D42D279635C2544EB71625415
S31500004F90491C0429F4DB32BD70B50D460446AE68E3
S31500004FA02A6858A101200BF057FC686818B956A169
S31500004FB000F061F82DE01CB92BE000F05CF8761CDF
S31500004FC0307820B3752808BF5C49F6D0762808BF2C
S31500004FD05B49F2D0772808BF5A49EED0732808BF3C
S31500004FE05949EAD0722808BF5849E6D0712808BF47
S31500004FF05749E2D0622808BF5649DED06E2808BF5E
S315000050005549DAD02A280CBF40A141A1D5E700F0C6
S3150000501008F80120FDF711FF00F003F8BDE8704025
S3150000502025E03CA101200BF009BC10B5044682B076
S3150000503021460120FFF7B0FF69462046FFF7E6FD4F
S3150000504050B913BD34A100F016F800990020FFF7FF
S31500005050A3FF00980C300090009800680028F1D15A
S3150000506013BD80B53D4900F006F8BDE802400120B9
S31500005070FDF7E3BE29A101200BF0EEBB10B5FFF74B
S31500005080F0FF2C4C04E021460020FFF785FF0C348E
S3150000509020680028F7D110BD70B5314951F820209D
S315000050A0304901200BF0D8FB1F48006810B9BDE855
S315000050B07040E3E7FFF7D5FF00240FE0F6B218A132
S315000050C0AA5D01200BF0C8FB761C2046FFF7AEFC5C
S315000050D0F1B28142F2D3FFF7CDFF641C134890F87A
S315000050E07B00E4B2401E844205DA60B2FFF7ABFCF7
S315000050F005460026E9E7BDE870400B48006894E7DE
S3150000510000000000257000002E2E2E00202A000030
S31500005110203F0000000000002020000020000000CA
S3150000512025630000CBE30320C0F2032044F20320F2
S315000051302EFF0320D80603002FFF03205408030088
S31500005140600803006C080300780803008408030065
S31500005150900803009C080300A8080300B008030099
S3150000516040E20320F0080300890001EB401000F143
S3150000517084400260704710B54C00214611F016FCC1
S31500005180A04201D0002010BD012010BD80B511F055
S3150000519041FC00B10120C0B202BDDFF8340A00783C
S315000051A000B101207047DFF8801A097C01B9704709
S315000051B080B511F0A7FB20B1BDE804404FF497710C
S315000051C0C4E201BD10B5DFF8082A1378010018BF44
S315000051D0012103B101239942107017D058B16FF025
S315000051E07F00FFF7E0FF0DF0C1FCC0050ED5BDE85E
S315000051F0104011F074BCDFF8844A94F9050000F001
S3150000520087FD2079BDE8104000F0B1BC10BDDFF885
S31500005210C019097801F0FE010843D3E7DFF8600AF8
S315000052200068000E00F00F00032801D1012070472E
S315000052300020704780B5B0F5004F07D100F092FD11
S31500005240DFF80C0A00F064FCBDF80000DFF82C1A49
S315000052504883002002BD410904D1DFF81C1A0978F1
S3150000526061F34710A0F10B01102904D2DFF80C1AE4
S31500005270084410F8030C70472DE9F04F440900F07C
S315000052801F050027DFF8FC8900E07F1C98F8066000
S31500005290F8B2B04245D2D8F80800FFB250F827005D
S315000052A04FF0000C01E00CF1010CC67E5FFA8CFE9B
S315000052B0B645EAD2D0F81CE05FFA8CFC182616FB3D
S315000052C00CF6B6449EF8086006F00706A642EAD138
S315000052D09EF80960B542E6DB9EF801B09EF80090A4
S315000052E006EB0B0AAAEB090AAA45DCDBDFF8EC4958
S315000052F0247854B1DFF83049E47C34B9DEF80C4048
S315000053001CB12468EC40E4070BD511B1AC1B4C442E
S315000053100C7012B19EF8081011701BB1C3F800E0B2
S3150000532000E00020BDE8F08F400918BF40F01800EB
S31500005330704780B511F06EFBBDE8084001460022BB
S31500005340002011F074BB0B38102834BFDFF8400A78
S31500005350DFF8E00A0068704710B5DFF8DC0AC179AB
S315000053600A0018BF022913D1007800F0B3F80446EA
S3150000537011F0CAFB60B10121002011F0F5FB2046B7
S3150000538011F0C2FB20B1BDE8104040F29221DDE1F0
S3150000539010BD2DE9FF41FFF75EFF044604F01F0034
S315000053A01B2824D2002000906B4601AA002120462B
S315000053B0FFF762FF07001AD02046FFF7C4FF5FEA37
S315000053C0000814D0DFF86068DFF8B058706B8045CD
S315000053D00FD002A84146082204F04AFC288BADF8FB
S315000053E00A00C6F8348002A811F038FC08B98A20F1
S315000053F020E000983062F761009800B100697062A1
S315000054009DF80400707400202918097AA14214D06E
S31500005410401CC0B21028F7D32978E0B288421CBFDE
S315000054202C70FFF799FF96F91200DFF8C81AC00131
S315000054300860002004B0BDE8F08100F10B04EBE742
S31500005440DFF8F40900787047DFF8EC09B0F91800C6
S31500005450002854BF05216FF0040108180A2190FBAB
S31500005460F1F040B270470A2110FB01F0FFE7F8B5F2
S3150000547000F5D77240F277239A4201D38B20F2BD12
S31500005480DFF8A427DFF8B049136A0A25002B1EBFF0
S31500005490A67E06F0C006802E12D0D67C86B993F979
S315000054A0026016FB05F7B842B8BF16FB05F007DB2E
S315000054B093F9033013FB05F68642B8BF13FB05F0DC
S315000054C0117C11B111F0E0FF01E010FB05F0208323
S315000054D00020F2BD38B5FFF7BEFE0446FFF733FFE6
S315000054E090B10023002200212046FFF7C5FE58B1E7
S315000054F004F01F051B2D07D22046FFF715FF18B92C
S315000055000B2D01DB284632BDFF2032BD0FF208010C
S315000055104008085C70470000F0A050007047C0B219
S31500005520704710F1590F01DA0020704710F1240F6F
S3150000553001DBFF2070475A300002362190FBF1F064
S31500005540C0B2704738B5DFF8E046DFF8A05A002051
S31500005550A063687828B111F099FF012818BF0328C5
S3150000556001D1002032BD616ADFF8842A00291FBFFD
S31500005570236A5B69002B022813D1207EA26318B12F
S3150000558000200021642203E0E87829794FF4A07214
S315000055902070A2806170A878A0708020E080002032
S315000055A028E0DFF8505A207EAB420FD1DFF8F42A0C
S315000055B0A26368B90879207001228B7808799A402D
S315000055C0101891F903201018401E08E0A26318B1C4
S315000055D000202080642005E048782070887860707C
S315000055E008780001A0804879A07008890001E08051
S315000055F0C8880001A06000F0BBFBE07094F90200CF
S31500005600010048BF4042C0B232BD7CB50446DFF857
S315000056101866257896F9190008B18C2076BDFFF733
S3150000562091FFF076DFF8C409817981F00102727387
S3150000563001B1AD1EF17C61B9007850B16078800689
S3150000564007D5012030736FF001007076E078B076F0
