:1000000000000420DD0100000902000009020000D8
:1000100009020000090200000902000009020000B4
:1000200009020000090200000902000009020000A4
:100030000902000009020000090200000902000094
:100040000902000009020000090200000902000084
:100050000902000009020000090200000902000074
:10006000090200000902000009020000B91A00009C
:10007000A1160000090200000902000009020000A8
:100080000902000009020000090200000902000044
:100090000902000009020000090200000902000034
:1000A0000902000009020000090200000902000024
:1000B0000902000009020000090200000902000014
:1000C0000902000009020000090200000902000004
:1000D00009020000090200000902000009020000F4
:1000E00009020000090200000902000009020000E4
:1000F00009020000090200000902000009020000D4
:1001000009020000090200000902000010B5054CB8
:10011000237833B9044B13B10448AFF300800123B3
:10012000237010BD84000020000000003422000075
:10013000084B10B51BB108480849AFF300800848C8
:10014000036803B910BD074B002BFBD0BDE810407E
:10015000184700BF00000000342200008800002083
:100160008000002000000000154B002B08BF134B3F
:100170009D46A3F5803A00218B460F461348144A4A
:10018000121A02F003F80F4B002B00D098470E4BC9
:10019000002B00D098470020002104000D000D48DE
:1001A000002802D00C48AFF3008001F0C9FF200006
:1001B000290001F02FFA01F0AFFF00BF0000080096
:1001C0000000042000000000000000008400002067
:1001D000CC0000200000000000000000064880471E
:1001E0000649074A074B9A42BEBF51F8040B42F832
:1001F000040BF8E7FFF7B8FFD90200004022000027
:100200000000002084000020FEE700BF80B582B01F
:1002100000AF00F01DF878600A4BD3F808210A4BB4
:1002200013401B0A3B603B6801337A68B2FBF3F36F
:100230007B60064A7B6813607B6818460837BD46BA
:1002400080BD00BF00400E4000FF010008000020FC
:1002500080B483B000AF164BD3F8943003F007039B
:10026000032B08D0042B02D0022B08D00BE0114B3B
:100270001B687B600BE04FF400437B6007E00E4B94
:100280001B687B6003E00D4B1B687B6000BF084B65
:10029000D3F8003103F4F8531B0A01337A68B2FB38
:1002A000F3F318460C37BD465DF8047B704700BF7A
:1002B00000400E4004000020000000200C00002040
:1002C00080B400AF034B1B681846BD465DF8047B45
:1002D000704700BF0000002080B400AF054A054B06
:1002E000D3F8883043F47003C2F88830BD465DF817
:1002F000047B704700ED00E080B400AF4FF4004392
:100300001846BD465DF8047B704700BF80B400AF5F
:100310004FF47A731846BD465DF8047B704700BF02
:1003200080B400AF034B1B681846BD465DF8047BE4
:10033000704700BF0400002080B487B000AFF860B1
:10034000B9607A60FB6803F10473DA00BB68134498
:100350009B007B617B697A681A601C37BD465DF83B
:10036000047B704780B483B000AF78607B68012263
:1003700002FA03F318460C37BD465DF8047B70475C
:1003800080B483B000AF054B1B687B607B68184668
:100390000C37BD465DF8047B704700BF100000209D
:1003A00080B582B000AFFFF753FF7860064BD3F8FB
:1003B000003103F4F8531B0A01337A6802FB03F39C
:1003C00018460837BD4680BD00400E4080B582B05B
:1003D00000AF0D4800F04EFA0346FB70FB78072B88
:1003E00005D0092B07D1FFF733FF786006E0FFF750
:1003F000C7FF786002E000237B6000BF7B6818467F
:100400000837BD4680BD00BF06000C0080B584B033
:1004100000AF78607B68002B1CD11B4800F02AFAE3
:100420000346FB7200BFFB7A013B072B23D801A2D6
:1004300052F823F05904000077040000770400000C
:100440006704000077040000770400005F040000E8
:100450006F040000002312E00023FB600EE0FFF7B2
:100460008FFFF8600AE0FFF72BFFF86006E0FFF768
:1004700097FFF86002E00023FB6000BFFB681846AE
:100480001037BD4680BD00BF98002E0090B585B0E6
:1004900000AF78600023BB607B68334A934206D08C
:1004A000324A934203D0324A934200D000E000BF68
:1004B000786800F0DFF90346FB607B682A4A9342C4
:1004C0000DD02A4A934211D0294A934200D014E019
:1004D000284BD3F8803003F00703FB600DE0254B79
:1004E000D3F8843003F00703FB6006E0214BD3F818
:1004F000883003F00703FB6000BFFB68042B2ED895
:1005000001A252F823F000BF590500001D050000AC
:1005100025050000350500002D050000FFF7ECFE65
:10052000B8601CE0FFF7FCFEB86018E0FFF7EEFED5
:10053000B86014E0FFF76AFE04460E4BD3F80031B2
:1005400003F080731B0E01331846FFF70BFF0346C1
:10055000B4FBF3F3BB6002E00023BB6000BFBB68E9
:1005600018461437BD4690BD03001C00050020004E
:1005700002001A0000400E4080B483B000AF7860E3
:100580000A4BD3F8443103F00103002B00D007E0FD
:1005900000BF064BD3F840217B681340002BF8D1F5
:1005A0000C37BD465DF8047B704700BF00400E402D
:1005B00080B586B000AF78600B46FB7000233B61CE
:1005C0007B681B0A03F00F03013B092B44D801A2EF
:1005D00052F823F0FD05000009060000590600004E
:1005E00059060000030600000F060000190600006F
:1005F00059060000230600002F060000184B7B61FF
:1006000018E0184B7B6115E0174B7B6112E0174B2C
:100610007B6101233B610DE0154B7B6110233B6146
:1006200008E0144B7B614FF480333B6102E0124BD6
:100630007B6100BF7B681B0B03F01F03FB603B6902
:10064000002B02D03869FFF797FFFB787869F968CB
:100650001A46FFF771FE00E000BF1837BD4680BDA7
:1006600000400E40B0400E40C0400E40E0400E4002
:10067000E8400E40F0400E4050410E4080B584B03E
:1006800000AF78607B6803F47813B3F5901F7AD0DD
:10069000B3F5901F1AD8B3F5002F4DD0B3F5002F46
:1006A00008D8B3F5003F4BD0B3F5802F35D0002BE1
:1006B0002FD0CCE0B3F5402F00F0BC80B3F5602F15
:1006C00000F0BC80B3F5202F49D0C0E0B3F5E01FA7
:1006D0007FD0B3F5E01F09D8B3F5B01F7ED0B3F5D6
:1006E000D01F4BD0B3F5A01F52D0B0E0B3F5281FF8
:1006F00060D0B3F5281F04D8B3F5001F00F0958033
:10070000A5E0B3F5301F7CD0B3F5381F00F09A8018
:100710009DE0FFF79DFDF8609CE0FFF799FDF86014
:100720004F4BD3F80C214F4B13401B0A0133FA688F
:10073000B2FBF3F3FB608DE0FFF78AFDF86089E020
:10074000FFF786FDF860464BD3F80821454B134070
:100750001B0A0133FA68B2FBF3F3FB607AE0FFF7A0
:1007600077FDF8603E4BD3F8143103F4F8531B0ABD
:100770000133FA68B2FBF3F3FB606BE03A48FFF732
:1007800085FEF86066E03948FFF780FEF86061E0BA
:100790003548FFF77BFEF860314BD3F8203103F08A
:1007A0000F031846FFF7DEFD0246FB68B3FBF2F3CA
:1007B000FB604FE02C48FFF769FEF860284BD3F848
:1007C000203103F030031B091A46FB68D340FB605D
:1007D00040E02748FFF75AFEF8603BE02448FFF767
:1007E00055FEF8601E4BD3F8283103F030031B0987
:1007F0001846FFF7B7FD0246FB68B3FBF2F3FB6058
:1008000028E01B48FFF742FEF860154BD3F828316B
:1008100003F440731B0A04331846FFF7A3FD024696
:10082000FB68B3FBF2F3FB6014E01048FFF72EFE09
:10083000F8600FE0FFF7CAFDF8600BE0FFF7A0FDDE
:10084000F86007E00020FFF7E1FDF86002E0002318
:10085000FB6000BFFB6818461037BD4680BD00BF77
:1008600000400E4000FF010002001A0005002000B9
:1008700003001C0080B485B000AF78600123FB73D7
:100880007B6803F00F03BB60BB68013B072B00F2E2
:10089000AD8001A252F823F0B9080000EB08000077
:1008A0001B090000ED09000061090000910900002A
:1008B000ED090000B1090000514BD3F8943003F06A
:1008C0000703032B07D0042B02D0022B06D008E02D
:1008D0000223FB7308E00323FB7305E00423FB738F
:1008E00002E00523FB7300BF83E0454BD3F8803063
:1008F00003F00703022B06D0042B07D0012B08D1ED
:100900000323FB7308E00223FB7305E00A23FB7358
:1009100002E00123FB7300BF6BE0394BD3F8843056
:1009200003F00703013B032B16D801A252F823F072
:100930004109000047090000530900004D0900006B
:100940000323FB730BE00223FB7308E00A23FB7312
:1009500005E00623FB7302E00123FB7300BF48E0C0
:10096000274BD3F8883003F00703022B06D0042B63
:1009700007D0012B08D10323FB7308E00223FB738C
:1009800005E00A23FB7302E00123FB7300BF30E0A4
:100990001B4B1B6F03F00103002B05D0012B00D074
:1009A00027E00923FB7302E00723FB7300BF20E06D
:1009B000134BD3F85C3103F03003102B0CD0102B09
:1009C00002D8002B05D014E0202B08D0302B09D002
:1009D0000FE00123FB7308E00723FB7305E004230A
:1009E000FB7302E00823FB7300BF02E00023FB73EC
:1009F00000BFFB7B18461437BD465DF8047B70478B
:100A000000400E4080B483B000AFEFF310833B6032
:100A10003B687B6072B67B6818460C37BD465DF854
:100A2000047B704780B483B000AF78607B68002B94
:100A300000D162B60C37BD465DF8047B704700BF3D
:100A400080B485B000AF786039607B6803F1C06323
:100A5000FB60FB683A681A601437BD465DF8047B9A
:100A6000704700BF80B485B000AF786039607B68A4
:100A700003F18063FB60FB683A681A601437BD4677
:100A80005DF8047B704700BF80B582B000AF0346BD
:100A90003960FB71FB79002B1CD0FB79012B19D03D
:100AA000FB79022B16D0FB79032B13D0FB79042B97
:100AB00010D0FB79052B0DD0FB79062B0AD0FB79E2
:100AC000072B07D0FB79082B04D0FB79092B01D029
:100AD000FB790A2BFA7913465B0013441B010C3394
:100AE00003F1804303F520433A68012101FA02F241
:100AF00018461146FFF7B6FF0837BD4680BD00BF58
:100B000080B582B000AF03463960FB71FB79002BE2
:100B10001CD0FB79012B19D0FB79022B16D0FB7965
:100B2000032B13D0FB79042B10D0FB79052B0DD0B0
:100B3000FB79062B0AD0FB79072B07D0FB79082B12
:100B400004D0FB79092B01D0FB790A2BFA791346E3
:100B50005B0013441B010C3303F1804303F5204376
:100B60003A68012101FA02F218461146FFF768FFC0
:100B70000837BD4680BD00BF90B585B000AFB960F5
:100B80007B600346FB731346BB73FB7B002B1CD0BF
:100B9000FB7B012B19D0FB7B022B16D0FB7B032B9D
:100BA00013D0FB7B042B10D0FB7B052B0DD0FB7BE4
:100BB000062B0AD0FB7B072B07D0FB7B082B04D02E
:100BC000FB7B092B01D0FB7B0A2BBB7B002B0DD0C1
:100BD0007B68002B05D0FB7B1846B968FFF790FFB8
:100BE00004E0FB7B1846B968FFF74EFFBB68072B94
:100BF0001CD82B4CFA7B2A48F97B0B465B000B4434
:100C00001B0103445968BB689B0018460F238340AF
:100C1000DB430B40B97BB868800081401943134621
:100C20005B0013441B012344596024E01C4CFA7BF5
:100C30001B48F97B0B465B000B441B010344083344
:100C40001968BB6803F18043083B9B0018460F23DB
:100C50008340DB431940B87BBB6803F18043083B0A
:100C60009B0000FA03F3194313465B0013441B0176
:100C7000234408331960BB7B002B0DD17B68002B0C
:100C800005D0FB7B1846B968FFF73AFF04E0FB7B11
:100C90001846B968FFF7F8FE1437BD4690BD00BF8F
:100CA00000A0004080B586B000AFF860B9607A60FF
:100CB000FB70BB68002B03D12448FFF7DFFCB86052
:100CC000FB78202B0CD0202B02DC002B05D03AE047
:100CD000402B08D0602B09D035E010237B6108E061
:100CE00008237B6105E006237B6102E004237B612E
:100CF00000BFBB685A017B69796801FB03F35B089D
:100D000013443B617B697A6802FB03F33A69B2FBE7
:100D1000F3F33B613B69203B3B613B69DB003B619B
:100D20003A690B4B13403B61FB681B6823F0600280
:100D3000FB681A60FB681A68FB781A43FB681A6044
:100D4000FB683A695A611837BD4680BD40410500CD
:100D5000F8FF7F0080B582B000AF786039607B68B3
:100D60002D4A93420BD07B682C4A934207D07B6874
:100D70002B4A934203D07B682A4A934200D100BF9A
:100D8000786800F051F83B689B7C002B05D07B68AD
:100D90001B6843F080427B681A603B68DB7C002B59
:100DA00007D03B681B7D63F07F03DBB21A467B688C
:100DB0009A653B685B7B1A463B681B8A13433A681B
:100DC000D2891A437B685A603B6859683B689A68C5
:100DD0003B681B7B7868FFF765FF3B689B7D1B07C3
:100DE00003F0E0423B68DB7D1B0503F4E0031A439C
:100DF0007B681A663B685B7D002B05D07B681B68AF
:100E000043F480327B681A603B681B781A467B6823
:100E1000DA600837BD4680BD000001400004014093
:100E200000080140000C014080B483B000AF78603E
:100E30007B68254A93420BD07B68244A934207D0B3
:100E40007B68234A934203D07B68224A934200D1B5
:100E500000BF7B6840F6AA62DA607B6800221A60F5
:100E60007B6841F205025A607B6800229A607B68C9
:100E700000225A617B680022DA647B68164A9A6411
:100E80007B6800225A677B6800229A677B68002291
:100E9000DA677B680C4A934202D17B6800221A65AC
:100EA0007B6800229A657B68084A934203D07B687E
:100EB000084A934202D17B680022DA650C37BD46AE
:100EC0005DF8047B704700BF000001400004014052
:100ED00000080140000C0140F9FF010080B483B01C
:100EE00000AF786000BF7B681B6903F08003002BB4
:100EF000F9D07B68DB69DBB218460C37BD465DF87C
:100F0000047B7047B0B586B000AF144B3C461D461D
:100F10000FCD0FC495E8030084E80300104B0022B6
:100F20001A60104B00221A600F480121FFF740FBA6
:100F30000E480121FFF73CFB0D480121FFF738FB6C
:100F40003B460C481946FFF705FF012000F014F856
:100F5000002318461837BD46B0BD00BFB4210000BD
:100F6000A0000020A400002040410500003508003A
:100F7000004204000000014080B582B000AF03468B
:100F8000FB71FB79002B1DD00020002104220123DE
:100F9000FFF7F2FD0020012101220123FFF7ECFD04
:100FA0000020052104220123FFF7E6FD134B032255
:100FB0005A67124A114B9B6F23F4F85323F01F0317
:100FC000936717E00020052100220023FFF7D4FDDE
:100FD0000A4A0A4B5B6F23F003035367002000218A
:100FE00000220023FFF7C8FD00200121002200237A
:100FF000FFF7C2FD0837BD4680BD00BF00000140BD
:1010000080B582B000AF78607B6803F00403002BEA
:1010100001D0FFF777FF002318460837BD4680BD93
:1010200080B483B000AF78607B680D4A93420BD0E8
:101030007B680C4A934207D07B680B4A934203D0EB
:101040007B680A4A934201D1012300E0002303F0A8
:101050000103DBB218460C37BD465DF8047B7047D0
:10106000008001400084014000A0014000A4014034
:1010700080B582B000AF786039607868FFF7D0FF44
:101080003B681B7883F00103DBB2002B02D07B6846
:1010900002225A607B6800225A623B689B781A06DB
:1010A0003B68DB781B041A433B689B799B021A431D
:1010B0003B68DB791B0213433A68127A1A433B6898
:1010C0005B78002B01D0402300E000231A433B68EB
:1010D0005B7A002B01D0802300E000231A433B6899
:1010E0009B7A002B01D0202300E000231A433B68A9
:1010F000DB7A002B01D0102300E000231A433B6869
:101100001B79002B02D04FF4005300E000231A4358
:101110003B685B79002B02D04FF0805300E0002346
:101120001A433B681B7B002B01D0082300E00023FF
:101130001A437B681A603B681B78002B02D07B68DF
:1011400001225A600837BD4680BD00BF80B584B01B
:1011500000AFF860B9607A60F868FFF761FF7B68FC
:101160001B789A067B685B781B061A437B689B7822
:101170001B041A437B68DB781B031A437B681B79CB
:101180009B021A437B685B791B0213437A6892794E
:101190001A437B68DB79002B02D04FF0804300E0DC
:1011A00000231A437B681B7A002B02D04FF00053B8
:1011B00000E000231A437B685B7A002B01D01023E8
:1011C00000E000231A437B689B7A002B01D00423A4
:1011D00000E000231A43F968BB6806331B010B4487
:1011E0001A601037BD4680BD80B400AF044BDB6C85
:1011F0001B0EDBB21846BD465DF8047B704700BF8E
:10120000B081E00F80B582B000AFFFF7EDFF03467D
:10121000FB71FB79002B0CD1134B4AF6E8521A6094
:10122000124A124B1B6843F0040313600E4B00225A
:101230001A60FB79012B05D80D4A0D4B1B6843F44E
:10124000005313600B4A0B4B1B6A23F4441343F403
:1012500088131362084A084B1B6843F480731360B9
:101260000837BD4680BD00BF90310E4098310E401A
:1012700064310E4000400E4000000E4080B584B046
:1012800000AF78604E4B1B68012B40F09580002327
:10129000FB6072E00320082104220123FFF76CFCAD
:1012A0000320092104220023FFF766FC03200A2102
:1012B00004220123FFF760FC03200B2104220023FA
:1012C000FFF75AFC4FF47A6000F0A4FB03200821DA
:1012D00004220023FFF750FC0320092104220123EC
:1012E000FFF74AFC03200A2104220123FFF744FCF4
:1012F00003200B2104220023FFF73EFC4FF47A6009
:1013000000F088FB0320082104220023FFF734FCAF
:101310000320092104220123FFF72EFC03200A21C8
:1013200004220023FFF728FC03200B2104220123C1
:10133000FFF722FC4FF47A6000F06CFB03200821D9
:1013400004220123FFF718FC0320092104220023B3
:10135000FFF712FC03200A2104220023FFF70CFCF4
:1013600003200B2104220123FFF706FC4FF47A60CF
:1013700000F050FBFB680133FB60FA687B689A421F
:1013800088DB0320082104220023FFF7F5FB03205C
:10139000092104220023FFF7EFFB03200A21042286
:1013A0000023FFF7E9FB03200B2104220023FFF7B2
:1013B000E3FB034B00221A601037BD4680BD00BF1F
:1013C0001400002080B584B000AF78604E4B1B68DD
:1013D000012B40F095800023FB6072E00320082180
:1013E00004220123FFF7C8FB032009210422002364
:1013F000FFF7C2FB03200A2104220023FFF7BCFBF6
:1014000003200B2104220123FFF7B6FB4FF47A607F
:1014100000F000FB0320082104220023FFF7ACFBAF
:101420000320092104220123FFF7A6FB03200A2140
:1014300004220023FFF7A0FB03200B210422012339
:10144000FFF79AFB4FF47A6000F0E4FA03200821DA
:1014500004220023FFF790FB03200921042201232B
:10146000FFF78AFB03200A2104220123FFF784FBF4
:1014700003200B2104220023FFF77EFB4FF47A6048
:1014800000F0C8FA0320082104220123FFF774FBAF
:101490000320092104220023FFF76EFB03200A2109
:1014A00004220123FFF768FB03200B210422002301
:1014B000FFF762FB4FF47A6000F0ACFAFB6801338F
:1014C000FB60FA687B689A4288DB032008210422CB
:1014D0000023FFF751FB0320092104220023FFF71B
:1014E0004BFB03200A2104220023FFF745FB0320C6
:1014F0000B2104220023FFF73FFB034B00221A605D
:101500001037BD4680BD00BF1400002080B584B0F8
:1015100000AF7860D7ED017A9FED3A7AF4EEC77AA2
:10152000F1EE10FA16D8D7ED017AF5EEC07AF1EEA9
:1015300010FA0FDBD7ED017A9FED327AC7EE877A8A
:10154000C7ED037AD7ED037A9FED2F7A67EE877A9E
:10155000C7ED037A2D4B1B6807EE903AB8EEE77A99
:10156000D7ED037AB4EEE77AF1EE10FA1BD5274BEC
:101570001B6807EE903AF8EEE77A97ED037A77EE7C
:10158000677AFDEEE77A17EE903ABB60204B0122B6
:101590001A60B868FFF772FE1C4B1A68BB681344E8
:1015A0001A4A136027E0194B1B6807EE903AB8EE11
:1015B000E77AD7ED037AB4EEE77AF1EE10FA1ADDA6
:1015C000124B1B6807EE903AB8EEE77AD7ED037A34
:1015D00077EE677AFDEEE77A17EE903ABB600C4B38
:1015E00001221A60B868FFF7EDFE084B1A68BB6865
:1015F000D31A064A1360054B1B6818461037BD46C0
:1016000080BD00BF0000C84200002F44A800002099
:101610001400002080B500AFFFF7F4FD0420FFF7B1
:10162000EFFC00F03FF9144800F0F4F91348FFF71D
:101630006DFF114800F0EEF91148FFF767FF0E4803
:1016400000F0E8F90F48FFF761FF0B4800F0E2F9FE
:101650000D48FFF75BFF084800F0DCF90B48FFF787
:1016600055FF054800F0D6F94FF00000FFF74EFF98
:10167000074800F0CFF9D6E7C0C62D000000704241
:101680000000A042000020420000A0410000C8422B
:1016900000A3E11180B483B000AF7860FEE700BF23
:1016A00098B500AF164B1B6903F08003002B26D0C2
:1016B000144B1C681248FFF711FC03461A46124BE4
:1016C0001A55104B1B6801330E4A13600F4B1B68F1
:1016D00001330E4A13600B4B1B68082B02D1094BD8
:1016E00000221A60094B1B68082B08DD054B0022FD
:1016F0001A60064B00221A60054B00221A6098BD42
:1017000000000140B0000020B8000020B40000201C
:10171000AC00002080B483B000AF0346FB710849E1
:1017200097F907305B09FA7902F01F02012000FAED
:1017300002F241F823200C37BD465DF8047B704768
:1017400000E100E080B483B000AF0346FB710949BB
:1017500097F907305B09FA7902F01F02012000FABD
:1017600002F2603341F823200C37BD465DF8047B5C
:10177000704700BF00E100E080B400AF054A054BB0
:101780001B6923F00403136130BFBD465DF8047B81
:10179000704700BF00ED00E080B483B000AF786018
:1017A0007B68094A934203D07B68084A934202D17E
:1017B0004FF0FF3301E04FF6FF7318460C37BD467C
:1017C0005DF8047B704700BF00A0014000A4014009
:1017D00080B584B000AFF860B9607A60F868FFF750
:1017E000DBFFFA68BB6806331B0113447A685A6052
:1017F0001037BD4680BD00BF80B483B000AF7860B5
:101800007B685B6A18460C37BD465DF8047B704701
:1018100080B483B000AF786039607B683A685A6101
:101820000C37BD465DF8047B704700BF80B483B0C1
:1018300000AF786039607B689A693B68DB431A4087
:101840007B689A610C37BD465DF8047B704700BF2A
:1018500080B483B000AF786039607B689A693B6878
:101860001A437B689A610C37BD465DF8047B70476C
:1018700080B483B000AF78607B68DB6818460C37B3
:10188000BD465DF8047B704780B582B000AF7860DC
:1018900039607868FFF780FF7B683A68DA6108375B
:1018A000BD4680BDB0B588B000AF01233B730023B7
:1018B0007B730023BB730023FB7300233B74002363
:1018C0007B740023BB740023FB7400233B7500234F
:1018D0007B750023BB750023FB7500233B7600233B
:1018E0003B7000237B700023BB700023FB70002340
:1018F0003B7100237B710023BB710023FB7100232C
:101900003B7200237B720023BB720223BB713648FB
:101910000121FEF74DFE35484FF6FF71FFF7B4FF8A
:101920003B46324800211A46FFF710FC0023BB73E8
:1019300007F10C032D481946FFF79AFB2C48FEF7D8
:101940009DFE02462B4B1A602A4B1B68BA7BD34084
:10195000284A1360BB7B0133DBB2BB73BB7B0A2B12
:1019600004D8244B1B68244A9342E1D82348FEF74D
:1019700085FE0246224BB3FBF2F3FB611D4B1B6855
:1019800018464FF00001FB691A464FF0000302FBB6
:1019900001F500FB03F42C44A0FB0223E1180B46E5
:1019A00018484FF00001121843EB01031046194686
:1019B000154A4FF0000300F0E1F802460B46134BC6
:1019C0001A60134B00221A7008481021FFF72EFFEF
:1019D0000B20FFF7B7FE0B20FFF79CFE00231846F5
:1019E0002037BD46B0BD00BF0002040000800140AA
:1019F00040410500C000002080841E00500002000D
:101A000000B0710B20A1070040420F00C40000206D
:101A1000C8000020B0B584B000AF7860224B1B68CE
:101A200018464FF000017B681A464FF0000302FB96
:101A300001F500FB03F42C44A0FB0223E1180B4644
:101A40001A484FF00001121843EB010310461946E3
:101A5000174A4FF0000300F091F802460B46C7E921
:101A600002230DE04FF6E85000F040F8D7E90223DA
:101A700010484FF0FF31121843EB0103C7E902236E
:101A8000D7E902234FF6E8504FF00001994208BF12
:101A90009042E7D33B89184600F028F80023184607
:101AA0001037BD46B0BD00BFC000002020A1070018
:101AB00040420F001802FFFF80B582B000AF094816
:101AC000FFF7D6FE78607B6803F01003002B06D08A
:101AD00004481021FFF79CFE034B01221A700837BF
:101AE000BD4680BD00800140C800002080B586B0A2
:101AF00000AF0346FB80FB88002B35D0FEF782FF4A
:101B000078611B48FFF778FE01461A4B1B683B6162
:101B1000FB88FB81FA893B69934238BF13460B442B
:101B20009BB2BB6012480021BA68FFF751FE104813
:101B30001021FFF76DFE0E481021FFF789FE78692E
:101B4000FEF770FF01E0FFF717FE0B4B1B78DBB2CF
:101B500083F00103DBB2002BF5D1074B00221A7092
:101B600003481021FFF762FE1837BD4680BD00BF55
:101B700000800140C4000020C800002053B94AB9C9
:101B8000002908BF00281CBF4FF0FF314FF0FF3085
:101B900000F03CB882B0EC462DE9005000F01EF891
:101BA000DDF804E002B00CBC704700BF2DE9F04145
:101BB000069C154606460F46984600F029F805FB98
:101BC00001F300FB0838A5FB0023B21A434467EB7E
:101BD0000303C4E90023BDE8F08100BF2DE9F04113
:101BE000069C904606460F461D4600F05FF900FB36
:101BF00005F5A0FB082308FB0155B21A2B4467EB3F
:101C00000303C4E90023BDE8F08100BF704700BFB3
:101C100000292DE9F043C0F2A6800026002BC0F277
:101C20009C80884694469E46154604460F46002BE7
:101C30003DD18A4259D9B2FA82F33BB1C3F12002B5
:101C40009F4020FA02F29D4017439C40290C220C31
:101C5000B7FBF1FEA8B201FB1E7742EA074700FB83
:101C60000EF3BB420AD97F190EF1FF3280F00581D5
:101C7000BB4240F20281AEF1020E2F44FF1AA4B221
:101C8000B7FBF1F301FB137744EA074700FB03F0CE
:101C9000B84208D97F1903F1FF3280F0F080B842D2
:101CA00040F2ED80023B43EA0E43002203E08B4208
:101CB0000FD900221346341C18BF012460424FF094
:101CC000000565EB45015840514000196941BDE8E8
:101CD000F083B3FA83F2002A40F086808B4202D36D
:101CE000844500F2DB800123E5E712B90123B3FB51
:101CF000F2F5B5FA85F000283BD1781B4FEA154E76
:101D00001FFA85FC0122B0FBFEF8210C0EFB180720
:101D100041EA07470CFB08F3BB4207D97F1908F1DA
:101D2000FF3102D2BB4200F2BD808846FF1AA4B246
:101D3000B7FBFEF30EFB137744EA07470CFB03FCEB
:101D4000BC4507D97F1903F1FF3102D2BC4500F22F
:101D5000A7800B4643EA0843ADE752426FEA060606
:101D600063EB43035DE7404261EB41014FF0FF3617
:101D700054E7C0F1200224FA02F107FA00F385408B
:101D80004FEA154ED7401943B7FBFEF20B0C0EFB82
:101D900012771FFA85FC43EA07430CFB02F79F42C8
:101DA00004FA00F407D95B1902F1FF3074D29F42A4
:101DB00072D9023A2B44DF1B89B2B7FBFEF80EFB47
:101DC000187341EA03430CFB08F79F4208D95B19DB
:101DD00008F1FF315CD29F425AD9A8F102082B4486
:101DE000D81B48EA02428EE7C2F120032CFA03F125
:101DF0000EFA02FE20FA03F741EA0E0E08FA02F08C
:101E000028FA03F14FEA1E453843B1FBF5F8030CFD
:101E100005FB18111FFA8EF743EA014107FB08F38F
:101E20008B420CFA02FC09D911EB0E0108F1FF39C3
:101E300030D28B422ED9A8F102087144C91A80B25F
:101E4000B1FBF5F305FB131140EA014107FB03F772
:101E50008F4208D911EB0E0103F1FF3016D28F42E9
:101E600014D9023B714443EA0843C91BA3FB0C8904
:101E7000494509D305D000221DE79646FEE61346E4
:101E800011E794404445F6D2013BF4E70346EAE704
:101E90008846A5E7C846D1E702468CE713460AE71D
:101EA000023B57E7A8F102082F443FE72DE9F04134
:101EB000002B44D18A42154604464FD9B2FA82F724
:101EC0000E464FB1C7F12003B94020FA03F602FADB
:101ED00007F50E4300FA07F44FEA154E230CB6FB44
:101EE000FEF0AFB20EFB106143EA014307FB00F1C5
:101EF000994209D95B1900F1FF3280F0EC809942D8
:101F000040F2E98002382B445A1AA4B2B2FBFEF325
:101F10000EFB132244EA024207FB03F7974208D95B
:101F2000521903F1FF3180F0D880974240F2D580FA
:101F3000023B43EA004000263146BDE8F0818B4277
:101F400047D8B3FA83F6002E48D18B4202D382429F
:101F500000F2CD8001203146BDE8F08112B90125A3
:101F6000B5FBF2F5B5FA85F8B8F1000F77D14A1B49
:101F70004FEA154EAFB20126B2FBFEF0230C0EFB6A
:101F8000102143EA014107FB00F38B4207D94919AD
:101F900000F1FF3202D28B4200F2BA801046C91A19
:101FA000A4B2B1FBFEF30EFB131144EA014407FB9C
:101FB00003F7A74208D9641903F1FF3280F08F803C
:101FC000A74240F28C80023B43EA00403146BDE824
:101FD000F081002630463146BDE8F081C6F120048C
:101FE00022FA04F5B3402B4320FA04FC01FA06F769
:101FF00021FA04F54FEA134E4CEA0707B5FBFEF849
:10200000390C0EFB18551FFA83FC41EA05450CFB01
:1020100008F1A94202FA06F204D9ED1808F1FF34DA
:1020200067D3A0466D1ABFB2B5FBFEF40EFB145584
:1020300047EA05410CFB04FC8C4504D9C91804F19E
:10204000FF355CD32C4644EA0844CCEB0101A4FBE9
:102050000223994248D344D0204600266CE7C8F1B9
:10206000200401FA08F305FA08F520FA04F7E14024
:102070004FEA154E1F43B1FBFEF63A0C0EFB16114C
:102080001FFA85FC42EA01430CFB06F29A4200FA71
:1020900008F407D95B1906F1FF3137D29A4235D9D6
:1020A000023E2B449B1ABFB2B3FBFEF00EFB103373
:1020B00047EA03430CFB00F1994207D95B1900F191
:1020C000FF3221D299421FD902382B445A1A40EAD2
:1020D0000646674650E7104616E70B4629E71346C3
:1020E00072E7B0409042B7D2601E002624E7304627
:1020F00022E7A94295D9A8F102081D4492E78C4530
:10210000A0D9023C19449EE71046DFE70E46C9E716
:102110000238294443E700BF08B5074B044613B112
:102120000021AFF30080054B1868836A03B198471C
:102130002046FFF7AFFA00BF000000003022000089
:1021400070B50E4B0E4CE41AA41000251E46A54295
:1021500004D056F8253098470135F8E700F01EF80E
:10216000084C094BE41AA41000251E46A54204D0D1
:1021700056F8253098470135F8E770BD7800002003
:10218000780000207C0000207800002002440346F4
:10219000934202D003F8011BFAE77047F8B500BF7D
:1021A000F8BC08BC9E467047F8B500BFF8BC08BC38
:1021B0009E467047050000000000000000C20100BC
:1021C00000050000001000000000000000000000FA
:1021D00000000000000000000000000000000000FF
:1021E00000000000000000000000000000000000EF
:1021F00000000000000000000000000000000000DF
:1022000000000000000000000000000000000000CE
:1022100000000000000000000000000000000000BE
:10222000000000000000000000000000430000006B
:0822300018000020000000006E
:0822380030DFFF7F0100000010
:1022400000F0490200800000C0EA2101C0EA21013B
:10225000C0EA21010100000000000000CC210000C4
:10226000EC2100000C220000000000000000000033
:1022700000000000000000002C2200000000000010
:10228000000000000000000000000000000000004E
:10229000000000000000000000000000000000003E
:1022A000000000000000000000000000000000002E
:1022B0000000000000000000310100000D010000DE
:0422C000000000001A
:04000003000001DD1B
:00000001FF
